:060000000A128A11C72F4D
:100008008316031307160800FD00FF30FA007D0869
:10001800031D10289530FA0008307D06031D1628A8
:100028008730FA00FF300A168A15EE230A128A1161
:100038007D0840380A168A15EE230A128A117908B3
:100048000A168A15EE230A128A1178080A168A15E2
:10005800EE230A128A1177080A168A15EE230A1265
:100068008A1176080A168A15EE230A128A117A0866
:100078000A168A15EE230A128A11FC01FF300A16A5
:100088008A15EE230A128A11FB00FB1B4D287B08F8
:1000980008000130FC070A307C02031C4228FF30AC
:1000A80008006708031D642868088312E800E9014E
:1000B80068088316B800831269088316B90068288F
:1000C8000630B8000030B9003808BE000030BD0066
:1000D8000030BC000030BB000030BA003E080319F5
:1000E80008003E080317900030089C002F089B006A
:1000F8002E089A002D0899003008AC002F08AB0094
:100108002E08AA002D08A9000313BF013E083F02CC
:100118000318A7293F088312E80001300310E80DEF
:10012800FF3E031D92280310680DAD3E840083171F
:100138000008E900840A0008EA00840A0008EB00C5
:10014800840A0008EC0083163F088312ED00013092
:100158000310ED0DFF3E031DAC2803106D0DA03EEE
:100168008400690883138000840A6A088000840A6E
:100178006B088000840A6C08800083163F0883128D
:10018800E80001300310E80DFF3E031DC6280310E8
:10019800680DAD3E840083170008D400840A000867
:1001A800D500840A0008D600840A0008D700831600
:1001B8003D088312DB0083163C088312DA0083169D
:1001C8003B088312D90083163A088312D8000A1212
:1001D8008A1534230A128A1157088316BD00831220
:1001E80056088316BC00831255088316BB00831279
:1001F80054088316BA003F088312E8000130031040
:10020800E80DFF3E031D03290310680DAD3E840071
:1002180083170008F000840A0008F100840A000827
:10022800F200840A0008F3009930E9000130EA007E
:100238006908840083176A1C83130008F400840A81
:100248000008F500840A0008F600840A0008F70090
:100258000A168A1143210A128A1103184F29831694
:100268003F088312E80001300310E80DFF3E031D2C
:1002780038290310680DAD3E8400831700088316E3
:1002880003179900840A00089A00840A00089B0052
:10029800840A00089C00A93083120313E800013087
:1002A800E900680884008317691C83130008F000BC
:1002B800840A0008F100840A0008F200840A000891
:1002C800F30083163F088312EA0001300310EA0D99
:1002D800FF3E031D6A2903106A0DAD3E8400831793
:1002E8000008F400840A0008F500840A0008F600F3
:1002F800840A0008F7000A168A1143210A128A1193
:100308000318A22983163F088312E800013003105E
:10031800E80DFF3E031D8B290310680DAD3E8400D8
:100328008317000883160317A900840A0008AA0087
:10033800840A0008AB00840A0008AC000130831668
:100348000313BF078A283E088312E800E901EA017F
:10035800EB016B08F3006A08F2006908F10068080D
:10036800F00001300A168A11D6210A128A11730880
:10037800A3007208A2007108A1007008A0008316EB
:100388003D088312A70083163C088312A600831633
:100398003B088312A50083163A088312A4000A12A8
:1003A8008A15A4210A128A112308831603179400B8
:1003B800831203132208831603179300831203136F
:1003C800210883160317920083120313200883164B
:1003D80003179100A030FC0003133E08FD000A1625
:1003E8008A1111240A128A11831603133E088312F4
:1003F800E80002300310E80CFF3E031DFE296808E0
:10040800E90001300310E90DFF3E031D062A031021
:10041800690DA03E840083130008831603179D000E
:10042800840A00089E00840A00089F00840A0008C5
:10043800A00003133E088312E8000310680CE900CB
:1004480001300310E90DFF3E031D252A0310690D35
:10045800A03E8400000883160317A100840A000840
:10046800A200840A0008A300840A0008A40004303B
:10047800F6000030F70003133E088312E800E90194
:100488006808F0006908F1000330F2000030F3005A
:100498000A168A153E230A128A117108F900700893
:1004A800F8000A168A15D5250A128A1176088312C9
:1004B800EA0001300310EA0DFF3E031D5E2A031017
:1004C8006A0DA03E84008313000883160317A50055
:1004D800840A0008A600840A0008A700840A000805
:1004E800A800080000308316D6000030D500003080
:1004F800D4000030D3000030D2000030D1000030EA
:10050800D0000030CF00C901C80103178801890154
:10051800031305150A168A11B8200A128A110A1639
:100528008A1572220A128A11F401F40A01300A1695
:100538008A1582230A128A11443083120313A300F6
:100548000A168A15A5230A128A110A168A1536224E
:100558000A128A110A168A15F9210A128A11033019
:1005680083160313C2008A30C1005530C000C00B87
:10057800BB2AC10BBB2AC20BBB2AF401F40A023006
:100588000A168A1582230A128A115130831203131C
:10059800A3000A168A15A5230A128A1103308316A6
:1005A8000313C2008A30C1005530C000C00BDA2ADC
:1005B800C10BDA2AC20BDA2A0A168A113C230A125C
:1005C8008A11003A03193A2B023083160313C2002A
:1005D8004530C100A930C000C00BF02AC10BF02A79
:1005E800C20BF02A0A168A11AC200A128A11003AA4
:1005F80003193A2B0130C900F401F40A02300A1633
:100608008A1582230A128A11173083120313A30052
:100618000A168A15A5230A128A11063083160313AF
:10062800C2001330C100AD30C000C00B192BC10B84
:10063800192BC20B192B5C3083120313AF00013046
:10064800B0008030B1000A168A1547250A128A11AF
:10065800033083160313C2008A30C1005530C0002E
:10066800C00B342BC10B342BC20B342B8316031352
:100678004908031D502BF401F40A02300A168A15A2
:1006880082230A128A11353083120313A3000A1633
:100698008A15A5230A128A110D3083160313C20086
:1006A800AF30C100B530C000C00B582BC10B582B60
:1006B800C20B582B5F2B0A168A1572220A128A114E
:1006C800D730FA000030FB000A128A1534200A12CB
:1006D8008A11D33083120313D400CF30D5000A1601
:1006E8008A11C6260A128A118316C7005608831271
:1006F800A900831655088312A8008316540883128C
:10070800A700831653088312A6000A168A15182410
:100718000A128A11CE01D730AC000030AD0056085D
:10072800B1005508B0005408AF005308AE00520895
:10073800B5005108B4005008B3004F08B2000A16BB
:100748008A1173220A128A111A3083160313C200FF
:100758005E30C1006D30C000C00BB02BC10BB02B98
:10076800C20BB02BB72B0A168A15C8230A128A1196
:10077800003A03191B2C03308312A0000030A1009B
:1007880083164E08013E8312A20000300318013080
:10079800A3000A168A158C250A128A1120088316C6
:1007A800CE000A168A1572220A128A1183160313BA
:1007B8004E03031DEA2B0A128A1155200A128A11C8
:1007C8000A168A1576270A128A110D2C02304E064F
:1007D800031DF42B0A168A15F5260A128A110D2C08
:1007E800D730AC000030AD005608B1005508B00055
:1007F8005408AF005308AE005208B5005108B400C1
:100808005008B3004F08B2000A168A1173220A1260
:100818008A11063083160313C2001330C100AD30AD
:10082800C000C00B152CC10B152CC20B152CD730D2
:10083800FA000030FB000A128A1534200A128A11C5
:10084800831603134808031D492CD3308312D400A0
:10085800CF30D5000A168A11C6260A128A118316C5
:10086800C70056088312A900831655088312A800EA
:10087800831654088312A700831653088312A60010
:100888000A168A1518240A128A114E08031D652CA7
:10089800D730AC000030AD005608B1005508B000A4
:1008A8005408AF005308AE005208B5005108B40010
:1008B8005008B3004F08B2000A168A1173220A12B0
:1008C8008A1105308312A0000030A1008316480861
:1008D800013E8312A200003003180130A3000A165B
:1008E8008A158C250A128A1120088316C8004E081A
:1008F800031DB72F0530F00058080A168A15DE22A6
:100908000A128A11003A031DB72F831658086D067C
:100918000319B72F5808ED0049080319B72F4708DE
:100928000319B72FC230F3002030F2000030F10075
:100938000030F0005608F7005508F6005408F50096
:100948005308F4000A168A1143210A128A1103185F
:10095800B72F83165608F3005508F2005408F10023
:100968005308F0004230F700A030F6000030F500E0
:100978000030F4000A168A1143210A128A1103185A
:10098800B72F0030F3000030F2000030F1000030E3
:10099800F00083165208F7005108F6005008F500D9
:1009A8004F08F4000A168A1143210A128A11031803
:1009B800B72F83165208F3005108F2005008F100CF
:1009C8004F08F0004230F700C830F6000030F5005C
:1009D8000030F4000A168A1143210A128A110318FA
:1009E800B72F8316DE015E08C53E84000A30F0008A
:1009F8005B080A168A15BF220A128A11303E83172D
:100A0800800001308316DE075E08C53E84000A3088
:100A1800F0005B080A168A15DE220A128A11303E97
:100A28008317800001308316DE075E08C53E840008
:100A38002F3080000130DE075E08C53E84000A3092
:100A4800F0005C080A168A15BF220A128A11303E85
:100A58008317800001308316DE075E08C53E8400D8
:100A68000A30F0005C080A168A15DE220A128A117A
:100A7800303E8317800001308316DE075E08C53ECE
:100A880084002F3080000130DE075E08C53E8400F8
:100A98000A30F0005D080A168A15BF220A128A1168
:100AA800303E8317800001308316DE075E08C53E9E
:100AB80084000A30F0005D080A168A15DE220A1240
:100AC8008A11303E8317800001308316DE075E08E6
:100AD800C53E84002C3080000130DE075E08C53E2C
:100AE80084000A30F00059080A168A15BF220A1233
:100AF8008A11303E8317800001308316DE075E08B6
:100B0800C53E84000A30F00059080A168A15DE220C
:100B18000A128A11303E8317800001308316DE07DF
:100B28005E08C53E84003A3080000130DE075E086A
:100B3800C53E84000A30F00058080A168A15BF22FC
:100B48000A128A11303E8317800001308316DE07AF
:100B58005E08C53E84000A30F00058080A168A1557
:100B6800DE220A128A11303E831780000130831674
:100B7800DE075E08C53E84002C3080000130DE07A9
:100B88005608F3005508F2005408F1005308F00025
:100B98000030F7000030F6000030F5000030F400B7
:100BA8000A168A1143210A128A110318DD2DBF3053
:100BB800DE2D3F308316C6000030C5000030C4006B
:100BC8000030C30056088312C100831655088312EB
:100BD800C000831654088312BF008316530883127B
:100BE800BE004130BD002030BC000030BB000030EA
:100BF800BA000A128A152A250A128A113D08DB0052
:100C08003C08DA003B08D9003A08D80083164608A1
:100C18008312D700831645088312D600831644082A
:100C28008312D500831643088312D4000A128A154A
:100C380034230A128A115708EB005608EA005508AF
:100C4800E9005408E8000A168A1585260A128A114E
:100C5800831269088316CD00831268088316CC00B6
:100C6800CD1F432E5E08C53E84002D3083178000BB
:100C78000130DE07CC09CD09CC0A0319CD0A5E087C
:100C8800C53E84006430F6000030F7004D08F900D6
:100C98004C08F8000A168A15D5250A128A11760812
:100CA8000F39303E8317800001308316DE075E0857
:100CB800C53E84000A308312A0000030A1000A302B
:100CC800F6000030F70083164D08F9004C08F800CC
:100CD8000A168A15D5250A128A1177088312A300E5
:100CE8007608A2000A168A158C250A128A1120088D
:100CF8000F39303E8317800001308316DE075E0807
:100D0800C53E84002E3080000130DE075E08C53EF7
:100D180084000A308312A0000030A10083164D0819
:100D28008312A30083164C088312A2000A168A15A0
:100D38008C250A128A1120080F39303E831780004B
:100D480001308316DE075E08C53E84002C30800023
:100D58000130DE0752088312C1008316510883123E
:100D6800C000831650088312BF0083164F088312F1
:100D7800BE004130BD002030BC000030BB00003058
:100D8800BA000A128A152A250A128A113D08DB00C0
:100D98003C08DA003B08D9003A08D8003F30D700B1
:100DA8000030D6000030D5000030D4000A128A1571
:100DB80034230A128A115708EB005608EA0055082E
:100DC800E9005408E8000A168A1585260A128A11CD
:100DD800831269088316CB00831268088316CA0039
:100DE8005E08C53E84000A30F7000030F800643021
:100DF800F0000030F1004B08F3004A08F2000A1630
:100E08008A154D240A128A117108FA007008F9002F
:100E18000A128A1504200A128A117708303E8317AD
:100E280080000130DE075E08C53E84000A30F70006
:100E38000030F8000A30F0000030F1004B08F300F1
:100E48004A08F2000A168A154D240A128A117108F6
:100E5800FA007008F9000A128A1504200A128A1189
:100E68007708303E831780000130DE075E08C53EF4
:100E780084002E3080000130DE075E08C53E840005
:100E88000A30F7000030F8004B08FA004A08F90069
:100E98000A128A1504200A128A117708303E83172D
:100EA80080000130DE075E08C53E84000D308000FA
:100EB8000130DE075E08C53E84000A30800001303C
:100EC800DE075E08C53E840080015C308312AF00F7
:100ED800C530B0000130B1000A168A1547250A123C
:100EE8008A11003A0319962F0F30F40002300A16BF
:100EF8008A1582230A128A1153300A168A15872402
:100F08000A128A110D3083160313C200AF30C100D4
:100F1800B530C000C00B8E2FC10B8E2FC20B8E2F89
:100F2800952FB72FC901F401F40A02300A168A1561
:100F380082230A128A11263083120313A3000A1689
:100F48008A15A5230A128A111A3083160313C200C0
:100F58005E30C1006D30C000C00BB02FC10BB02F88
:100F6800C20BB02FB72F0D3083160313C200AF305A
:100F7800C100B530C000C00BBF2FC10BBF2FC20BC3
:100F8800BF2FC62FB72B83160A168A15E0210A121F
:100F98008A11E9000A168A15E1210A128A11EA0063
:100FA8000A168A15E2210A128A11EB000A168A1516
:100FB800E3210A128A11EC000A168A15E4210A12A2
:100FC8008A11ED000A168A15E5210A128A11EE0027
:100FD800831790308400ED300A168A15E6210A122C
:100FE8008A118313DF308400E9300A168A15E62156
:100FF80083010A128A11762A8316031387150800BB
:101008007708780403192F280130FB00F81B1628ED
:1010180001300310F70DF80DFF3E031D0D280130B8
:10102800FB070A2878087A02031D1C28770879022A
:10103800031C24287708F9027808031CFA03FA022B
:1010480001300310F80CF70CFF3E031D2528013072
:10105800FB02031D16287A08F8007908F700080033
:101068000A168A1525220A128A15003A03194228F7
:101078004A280A168A15A3220A128A157A08F00045
:101088007B08F1000A168A152A2608000A168A150E
:1010980088220A128A15D0300A168A15C3240A1221
:1010A8008A15003A03193D2800300A168A15C32408
:1010B8000A128A15003A03193D280A168A15882249
:1010C8000A128A15D1300A168A15C3240A128A15FB
:1010D800003A03193D2801300A168A1504250A1218
:1010E8008A158312A0007A08840083177B1C831357
:1010F80020087F390A168A1548220A128A158000A4
:1011080001300A168A1504250A128A158312A000CE
:101118007A08013EFC007B080318013E003EFD00F2
:101128007C08840083177D1C831320087F390A16E6
:101138008A1548220A128A15800001300A168A1573
:1011480004250A128A158312A0007A08023EFC00C0
:101158007B080318013E003EFD007C0884008317CD
:101168007D1C831320083F390A168A1548220A1263
:101178008A15800001300A168A1504250A128A1574
:101188008312A0007A08033EFC007B080318013E86
:10119800003EFD007C08840083177D1C8313200813
:1011A80007390A168A1548220A128A158000013062
:1011B8000A168A1504250A128A158312A0007A08CD
:1011C800043EFC007B080318013E003EFD007C083D
:1011D800840083177D1C831320083F390A168A155B
:1011E80048220A128A15800001300A168A15042539
:1011F8000A128A158312A0007A08053EFC007B08B3
:101208000318013E003EFD007C08840083177D1C06
:10121800831320081F390A168A1548220A128A15CC
:10122800800000300A168A1504250A128A158312CE
:10123800A0007A08063EFC007B080318013E003E29
:10124800FD007C08840083177D1C831320080A1680
:101258008A1548220A128A1580000A168A15A322BE
:101268000A128A157A08840083177B1C83133C3082
:101278000002031842287A08013EFC007B08031884
:10128800013E003EFD007C08840083177D1C83130B
:101298003C300002031842287A08023EFC007B0812
:1012A8000318013E003EFD007C08840083177D1C66
:1012B800831318300002031842287A08043EFC0001
:1012C8007B080318013E003EFD007C08840083175C
:1012D8007D1C83130008031942287A08043EFC0089
:1012E8007B080318013E003EFD007C08840083173C
:1012F8007D1C831320300002031842287A08053E1B
:10130800FC007B080318013E003EFD007C088400B9
:1013180083177D1C83130008031942287A08053EA9
:10132800FC007B080318013E003EFD007C08840099
:1013380083177D1C83130D300002031C080042280C
:101348002708B1008030B1052708A8002807B80091
:10135800A61B381438080319BF29380A031DBC29ED
:101368000030A7000030A6000030A5000030A4001F
:10137800A617A701C7290030A7000030A600003033
:10138800A5000030A40023088039B1062308A8006E
:101398002807B900A21B391439080319E129390AA9
:1013A800031DDE290030A3000030A2000030A10098
:1013B8000030A000A217A301E9290030A3000030E3
:1013C800A2000030A1000030A0002308220421045C
:1013D8002004031D062A0030A7000030A6000030B4
:1013E800A5000030A4008030A6047F30A70431088F
:1013F800A7042708A3002608A2002508A10024089E
:10140800A00008003808031D122A0030A30000308D
:10141800A2000030A1000030A00008003808A80091
:10142800A9012908AB0039082802AA00031CAB034C
:101438002A087F3EB2002B080318013E003EB30085
:101448002708B0002608AF002508AE002408AD0024
:101458000030A7000030A6000030A5000030A4002E
:101468000030B7000030B6000030B5000030B400DE
:10147800B9011A3039020318832A39080319612A75
:101488000130A8000310AD0DAE0DAF0DB00DA80BC7
:10149800462A0130A8000310A40DA50DA60DA70D1E
:1014A800A80B4F2AB71B24140130A8000310B40D51
:1014B800B50DB60DB70DA80B5A2A23083002031D27
:1014C8006F2A22082F02031D6F2A21082E02031DEE
:1014D8006F2A20082D02031C802A37172008AD0226
:1014E8002108031C210FAE022208031C220FAF02A1
:1014F8002308031C230FB0020130B9073D2A300826
:101508002F042E042D04031D3414A61BA62A013013
:10151800A8000310A40DA50DA60DA70DA80B8D2AD4
:10152800B71B24140130A8000310B40DB50DB60D77
:10153800B70DA80B982AFF30B2070318B30AFF307B
:10154800B307892AB901B71FBF2AFF303405A8009D
:10155800FF303505A900FF303605AA007F30370572
:10156800AB002B082A042904280403192418BD2ACF
:10157800BF2A0130B90039080319F12A0130A4073C
:10158800003003180130A507003003180130A60702
:10159800003003180130A707271CF12A2408A800E7
:1015A8002508A9002608AA002708AB000130AC00CE
:1015B8002B0DAB0CAA0CA90CA80CAC0BDC2A2B0825
:1015C800A7002A08A6002908A5002808A4000130B9
:1015D800B2070318B30A0030B3073308803AFF0094
:1015E80080307F02031DFA2AFF303202031C0A2BC7
:1015F800FF3083120313B2000030B3000030A7009D
:101608000030A6000030A5000030A40083120313A8
:101618003308803AFF0080307F02031D152B01300C
:1016280032020318242B83120313B201B3010030D2
:10163800A7000030A6000030A5000030A400B101CA
:10164800831203133208B800381C2C2BA6172E2B34
:101658007F30A6053808A8000310280CA700FB292E
:101668005708E4008030E4055708DC005C07E60012
:10167800D61B6614660803194F2B660A031D4C2BEC
:101688000030D7000030D6000030D5000030D4003C
:10169800D617D701572B0030D7000030D6000030BE
:1016A800D5000030D4005B08E5008030E50565080A
:1016B8006406031D64175B08DC005C07E500DA1BA1
:1016C800651465080319762B650A031D732B003012
:1016D800DB000030DA000030D9000030D800DA171B
:1016E800DB017E2B0030DB000030DA000030D9004F
:1016F8000030D800660865020318A42B641F862BE7
:101708008030E4066608E7006508E6006708E5003B
:101718005408E7005808D4006708D8005508E700BF
:101728005908D5006708D9005608E7005A08D600B6
:101738006708DA005708E7005B08D7006708DB008E
:10174800E7016508DC00DD015D08DF0066085C0272
:10175800DE00031CDF035F08803AFF0080307F0251
:10176800031DB82B1A305E02031CE92B83120313E6
:1017780057085604550454040319C42B0130C52BCB
:101788000030E7000030D7000030D6000030D50028
:101798000030D4006508E600EF2B671CDA2B6708D9
:1017A800DC0003105C0C0138E700DC2B0310E70CAD
:1017B8005418E7170130DC00570DD70CD60CD50CA0
:1017C800D40CDC0BE02B0130E60783120313650809
:1017D8006602031CD12B641B2C2C6608031DFD2BF1
:1017E8000030D7000030D6000030D5000030D400DB
:1017F80008005808D407590803110318013E031DAF
:10180800D5075A0803110318013E031DD6075B08C4
:1018180003110318013E031DD707571CCF2C671C63
:101828001C2C6708DC0003105C0C0138E7001E2C38
:101838000310E70C5418E7170130DC00570DD70CDC
:10184800D60CD50CD40CDC0B222C0130E607CF2C9F
:101858005708803AFF005B08803A7F02031D3E2C40
:101868005A085602031D3E2C59085502031D3E2CEA
:10187800580854020318952CFF30DC00FF30DD00B7
:10188800FF30DE00FF30DF005808E0005908E100B3
:101898005A08E2005B08E3005408E0025508031CFC
:1018A800550F572C582CE1025608031C560F5D2C77
:1018B8005E2CE2025708031C570F632C642CE302CA
:1018C8006008DC0761080318610F6B2C6C2CDD07BE
:1018D80062080318620F712C722CDE076308031864
:1018E800630ADF075F08D7005E08D6005D08D500E9
:1018F8005C08D4008030E4066703FF3AE700670815
:10190800031DA32C0130D407003003180130D5077C
:10191800003003180130D607003003180130D7070C
:10192800A32C5808D4025908031C590FD5025A0889
:10193800031C5A0FD6025B08031C5B0FD70257081B
:10194800560455045404031DCD2C6708031DCD2CE3
:101958000030D7000030D6000030D5000030D40069
:1019680008000130DC000310D40DD50DD60DD70DBD
:10197800DC0BB72CE71B5414671CC62C0314670D2B
:10198800E700C82C0310E70D66080319CD2C0130B9
:10199800E602D61FB52CE501E71FDA2C67087F3968
:1019A80003195418D82CDA2C0130E50065080319FE
:1019B8000B2D0130D407003003180130D507003053
:1019C80003180130D607003003180130D707571C19
:1019D8000B2D5408DC005508DD005608DE005708BA
:1019E800DF000130E0005F0DDF0CDE0CDD0CDC0CED
:1019F800E00BF72C5F08D7005E08D6005D08D5001D
:101A08005C08D400660A03190B2D0130E607660A44
:101A1800031D6608031D1B2D0030D7000030D600BB
:101A28000030D5000030D40066080319E401661CB4
:101A38001F2DD617212D7F30D6056608DC00031030
:101A48005C0CD700E41F0800D71708003D08C70042
:101A58008030C7053D08C2004207CD00BC1B4D14AD
:101A68004D080319442D4D0A031D422D0030BD00B9
:101A78000030BC000030BB000030BA00BC174C2D51
:101A88000030BD000030BC000030BB000030BA00A0
:101A980041088039C7064108C2004207C800C01B78
:101AA800481448080319652D480A031D632D0030A2
:101AB800C1000030C0000030BF000030BE00C017B9
:101AC8006D2D0030C1000030C0000030BF00003074
:101AD800BE004808031D4D08031D7B2D0030BD00C6
:101AE8000030BC000030BB000030BA0008003A08E3
:101AF800F00040080A168A155F230A128A15710831
:101B0800D3007008D2005208C200C301C401C50145
:101B18004508CC004408CB004308CA004208C90065
:101B28005308C200C301C401C5014508D1004408D7
:101B3800D0004308CF004208CE003B08F0003F0821
:101B48000A168A155F230A128A157108D3007008CD
:101B5800D2005208C200C301C401C5014208C90726
:101B6800430803110318013E031DCA074408031163
:101B78000318013E031DCB07450803110318013E56
:101B8800031DCC075308C200C301C401C5014208A4
:101B9800CE07430803110318013E031DCF0744086D
:101BA80003110318013E031DD0074508031103184C
:101BB800013E031DD1073C08F0003E080A168A15AD
:101BC8005F230A128A157108D3007008D2005208E0
:101BD800C200C301C401C5014208C9074308031173
:101BE8000318013E031DCA07440803110318013EE8
:101BF800031DCB07450803110318013E031DCC073D
:101C08005308C200C301C401C5014208CE074308F6
:101C180003110318013E031DCF07440803110318DD
:101C2800013E031DD007450803110318013E031D9B
:101C3800D1070830C2000310C90DCA0DCB0DCC0D59
:101C4800C20B1F2E3B08F0003E080A168A155F23B8
:101C58000A128A157108D3007008D2005208C2000F
:101C68005308C300C401C5014208C907430803114A
:101C78000318013E031DCA07440803110318013E57
:101C8800031DCB07450803110318013E031DCC07AC
:101C98003A08F0003F080A168A155F230A128A15C7
:101CA8007108D3007008D2005208C2005308C3005C
:101CB800C401C5014208C907430803110318013EBE
:101CC800031DCA07440803110318013E031DCB076F
:101CD800450803110318013E031DCC070830C20054
:101CE8000310C90DCA0DCB0DCC0DC20B742E3A08CA
:101CF800F0003E080A168A155F230A128A15710831
:101D0800D3007008D2005208C2005308C300C401AF
:101D1800C5014208C907430803110318013E031D02
:101D2800CA07440803110318013E031DCB074508E1
:101D380003110318013E031DCC073B08F0004008BF
:101D48000A168A155F230A128A157108D3007008CB
:101D5800D2005208C2005308C300C401C50142089A
:101D6800CE07430803110318013E031DCF0744089B
:101D780003110318013E031DD0074508031103187A
:101D8800013E031DD1073C08F0003F080A168A15DA
:101D98005F230A128A157108D3007008D20052080E
:101DA800C2005308C300C401C5014208CE07430856
:101DB80003110318013E031DCF074408031103183C
:101DC800013E031DD007450803110318013E031DFA
:101DD800D1073C08F00040080A168A155F230A124A
:101DE8008A157108D3007008D2005208C20053083F
:101DF800C300C401C50108300310C20DC30DC40DD2
:101E0800C50DFF3E031D002F4208CE0743080311EE
:101E18000318013E031DCF07440803110318013EB0
:101E2800031DD007450803110318013E031DD10700
:101E38004C08C200C301C401C5014208CE074308CB
:101E480003110318013E031DCF07440803110318AB
:101E5800013E031DD007450803110318013E031D69
:101E6800D1070830C2000310C90DCA0DCB0DCC0D27
:101E7800C20B372F4D084807C200C301C30D4208E3
:101E8800823ED20043080318013EFF3ED300D01B18
:101E9800682F0130C2000310CE0DCF0DD00DD10D2B
:101EA800C20B4F2FCC1B4E140130C2000310C90DBA
:101EB800CA0DCB0DCC0DC20B5A2FFF30D207031819
:101EC800D30AFF30D3074B2FC801CC1F812FFF3017
:101ED8004905C200FF304A05C300FF304B05C40066
:101EE8007F304C05C50045084404430442040319E7
:101EF8004E187F2F812F0130C80048080319B32FCF
:101F08000130CE07003003180130CF070030031826
:101F18000130D007003003180130D107511CB32F0E
:101F28004E08C2004F08C3005008C4005108C5003D
:101F38000130C600450DC50CC40CC30CC20CC60B41
:101F48009E2F4508D1004408D0004308CF0042081E
:101F5800CE000130D2070318D30A0030D307530844
:101F6800803AFF0080307F02031DBC2FFF305202F1
:101F7800031CC92F7F3083120313D1008030D00097
:101F88000030CF000030CE00F52F83120313530822
:101F9800803AFF0080307F02031DD42F01305202A7
:101FA8000318E22F003083120313D1000030D00051
:101FB8000030CF000030CE00C701F52F8312031385
:101FC8005208CD00FF30CE05FF30CF057F30D00559
:101FD8000030D1054D18D0174D08C2000310420C2F
:101FE800D1004708D1045108BD005008BC004F0873
:101FF800BB004E08BA000800FF1B0A2883137F188D
:1020080083170008840A0319FF0A080010308A00A1
:102018000408840A8207003446346534633468341B
:1020280061342C3448346F34723461342C34543471
:1020380065346D3470342C34483475346D340D3453
:102048000A3400345334443420344F344B3421346C
:1020580020342034203420342034203420342034D8
:1020680000345334443420344634413449344C34F5
:1020780021342034203420342034203420340034D7
:102088005334443420344534723472346F347234E7
:10209800213420342034203420342034003449348E
:1020A8006E34693474342034533465346E34733484
:1020B8006F3472347334003449346E346934743490
:1020C8002034533444342E342E342E3400344434E3
:1020D8004134543441342E34543458345434003454
:1020E8004334203420342034203420342034003445
:1020F80020344D34613478343A3400342534203473
:102108002034203400342034513433343A34003409
:102118004334203448343A3400344D34653464341C
:102128003A3400344D3469346E343A34003443342C
:1021380020346E343D340034513431343A34003470
:0E214800513432343A34003454343A340034D2
:10215800003083160313EC000030EB000330EA0074
:10216800E830E900013008000811881108128812C7
:10217800081388138230F500DD30F400F40BC22810
:10218800F50BC228C72803300A168A151D230A161C
:102198008A112130F5007630F400F40BD128F50BC4
:1021A800D128000003300A168A151D230A168A1141
:1021B8004830F5006C30F400F40BE028F50BE0280B
:1021C800000003300A168A151D230A168A112130C9
:1021D800F5007630F400F40BEF28F50BEF2800003B
:1021E80002300A168A151D230A168A112130F500B5
:1021F8007630F400F40BFE28F50BFE2800000230C0
:102208000A168A151D230A168A1108300A168A1515
:102218001D230A168A112130F5007630F400F40BDC
:102228001329F50B1329000000300A168A151D23FF
:102238000A168A110C300A168A151D230A168A11E5
:102248002130F5007630F400F40B2829F50B282905
:10225800000000300A168A151D230A168A1101305B
:102268000A168A151D230A168A118230F500DD30F8
:10227800F400F40B3D29F50B3D29422908000030F4
:102288007005F80000307105F90080307205FA0019
:102298007F307305FB007B087A0479047804031DFA
:1022A8005D290030F3000030F2000030F10000300A
:1022B800F00000307405F80000307505F900803032
:1022C8007605FA007F307705FB007B087A047904ED
:1022D8007804031D77290030F7000030F60000303D
:1022E800F5000030F400F31F9D290030F80000309D
:1022F800F9000030FA008030FB007008F80271081D
:10230800031C710F88298929F9027208031C720FAE
:102318008E298F29FA027308031C730F94299529B3
:10232800FB027B08F3007A08F2007908F1007808CC
:10233800F000F71FC3290030F8000030F900003022
:10234800FA008030FB007408F8027508031C750F4A
:10235800AE29AF29F9027608031C760FB429B529EE
:10236800FA027708031C770FBA29BB29FB027B08FE
:10237800F7007A08F6007908F5007808F40080304C
:10238800F3068030F70677087302031D0800760805
:102398007202031D080075087102031D0800740805
:1023A80070020800F8007808031DF31FEB29700974
:1023B800FA007109FB007209FC007309FD00FA0AB2
:1023C8000319FB0A0319FC0A0319FD0AF329730808
:1023D800FD007208FC007108FB007008FA00730821
:1023E800720471047004031D022A0030F3000030E7
:1023F800F2000030F1000030F00008009630F900DB
:10240800FE307D0503192D2A0130F907013003102C
:10241800FD0CFC0CFB0CFA0CFF3E031D0B2A042AD6
:102428000130F9070130FA07003003180130FB07C3
:10243800003003180130FC07003003180130FD0795
:1024480001300310FD0CFC0CFB0CFA0CFF3E031DC5
:10245800252AFF307D050319412A142A0230790202
:10246800031C432A0130F9020130F4000310FA0D6D
:10247800FB0DFC0DFD0DF40B3A2AFC1F322A7918CE
:102488004D2AFF30FA05FF30FB057F30FC05FF3091
:10249800FD050310F90C7908F400F501F601F701C0
:1024A80018300310F40DF50DF60DF70DFF3E031D62
:1024B800552A7408FA047508FB047608FC047708A2
:1024C800FD047808031DF31F6A2AFD177D08F30031
:1024D8007C08F2007B08F1007A08F0000800F4019B
:1024E800F40A01300A168A1582230A168A118316FD
:1024F80003132C08043EB6002D080318013E003EC5
:10250800B700360884008317371C831300080A169F
:102518008A15FD220A168A112F300A168A15872471
:102528000A168A11831603132C08053EB6002D08D7
:102538000318013E003EB700360884008317371C95
:10254800831300080A168A15FD220A168A112F30ED
:102558000A168A1587240A168A11831603132C086B
:10256800063EB6002D080318013E003EB7003608A7
:1025780084008317371C831300080A168A15FD2266
:102588000A168A11243083120313A3000A168A1527
:10259800A5230A168A1183162C08023EB6002D08B8
:1025A8000318013E003EB700360884008317371C25
:1025B800831300080A168A15FD220A168A113A3072
:1025C8000A168A1587240A168A11831603132C08FB
:1025D800013EB6002D080318013E003EB70036083C
:1025E80084008317371C831300080A168A15FD22F6
:1025F8000A168A11F401F40A02300A168A1582238F
:102608000A168A11993083120313A3000A168A1531
:10261800A5230A168A1183163108A5003008A400DC
:102628002F08A3002E08A2000A168A11D2250A161E
:102638008A117D3083120313A3000A168A15A52375
:102648000A168A1183163508A5003408A400330831
:10265800A3003208A2000A168A11D2250A168A1186
:10266800733083120313A3000A168A15A5230800E2
:102678000A168A15EE210A168A110614A301FF30DC
:102688000A168A15EE230A168A11013083120313DB
:10269800A3070A302302031C432B061007308312BA
:1026A8000313A1007C30A000A00B582BA10B582BC2
:1026B800000083120313A401A5010030F9000030C3
:1026C800F8000030F7000030F60000300A128A11D6
:1026D80008200A168A11013A0319812B0130831246
:1026E8000313A4070318A50A0030A5070030250224
:1026F800C83003192402031C612B00308312031312
:102708002502C83003192402031C8D2B061400303F
:1027180008000030F9000030F8000130F700AA3056
:10272800F60008300A128A1108200A168A11831244
:102738000313A2002203031DB02BA301FF300A16C6
:102748008A15EE230A168A11013083120313A30790
:1027580004302302031CA22BA401A5010030F900B8
:102768000030F8000030F7000030F60037300A1269
:102778008A1108200A168A114030F9000030F80042
:102788000030F7000030F60029300A128A110820BC
:102798000A168A11003A0319EB2B413083120313EE
:1027A800A100ED30A000A00BD72BA10BD72BDC2B61
:1027B800013083120313A4070318A50A0030A507E4
:1027C80001302502F43003192402031CB22B013016
:1027D800831203132502F4300319240203188A2BE9
:1027E8000030F9000030F8000230F7000030F60041
:1027F80010300A128A1108200A168A11003A0319A1
:10280800082C831203138A2B831203130614FF3038
:102818000A168A15EE23013008008312AC017D08E0
:10282800FF3EA000FF3003180030A1002108803AC5
:10283800803C031D212C20082C0203180800831259
:102848000313AD017D08A000A1012108A3002C08F5
:102858002002A200031CA3032208FF3EA4002308B1
:102868000318013EFF3EA5002508803A803C031D61
:102878003F2C24082D020318EA2C831203132D0879
:10288800A00001300310A00DFF3E031D462C0310CD
:10289800200D7C07A1002108043E84008313000852
:1028A800F000840A0008F100840A0008F200840A93
:1028B8000008F3002D08A20001300310A20DFF3E0E
:1028C800031D612C0310220D7C07A300230884003C
:1028D8000008F400840A0008F500840A0008F600DD
:1028E800840A0008F7000A168A1143210A168A1179
:1028F8000318E62C83122D08A00001300310A00D48
:10290800FF3E031D822C0310200D7C07A100210827
:10291800840083130008A800840A0008A900840A18
:102928000008AA00840A0008AB002D08A0000130A6
:102938000310A00DFF3E031D9C2C0310200D7C07E7
:10294800A1002108043E84000008A200840A0008AF
:10295800A300840A0008A400840A0008A5002D0822
:10296800A60001300310A60DFF3E031DB62C031070
:10297800260D7C07A7002708840022088000840A07
:1029880023088000840A24088000840A250880001F
:102998002D08A00001300310A00DFF3E031DCF2C11
:1029A8000310200D7C07A1002108043E840028089C
:1029B8008000840A29088000840A2A088000840A82
:1029C8002B08800001308312AD07262C01308312BA
:1029D8000313AC07132C0614FF300A168A15EE23CE
:1029E8000A168A11073083120313AA007C30A90043
:1029F800A90BFC2CAA0BFC2C000083120313061055
:102A0800073083120313AA007C30A900A90B0A2DF2
:102A1800AA0B0A2D0000831203132308F9002208C9
:102A2800F8002108F7002008F60018300A128A1169
:102A380008200A168A1183120313AC002C08031904
:102A48002B2D0614FF300A168A15EE2308000730CE
:102A580083120313AA007C30A900A90B312DAA0BFD
:102A6800312D0000FE300A168A15EE230A168A1147
:102A780083120313AD01AE0125082E02031D462D56
:102A880024082D02031C6D2D28082407A9002508F9
:102A98000318250AAA002A082E02031D552D290805
:102AA8002D0203186D2D2708AA0024082602A90064
:102AB800031CAA032D08290784002A0803182A0AD8
:102AC800FF000A168A1100200A168A11AB002B088B
:102AD8006E2DFF300A168A15EE230A168A11013068
:102AE80083120313AD070318AE0A0030AE07023095
:102AF8002E02003003192D02031C402DFF300A1648
:102B08008A15EE230A168A11FF300A168A15EE2353
:102B18000A168A11FF300A168A15EE230A168A1138
:102B280083120313AC001F302C05A90005302906B9
:102B38000319A42D0614FF300A168A15EE2308007F
:102B4800AD01AE01EA302E02603003192D020318E0
:102B5800C02DFF300A168A15EE230A168A11831231
:102B68000313AC002C08031DC02D0130AD0703185A
:102B7800AE0A0030AE07A62D0614FF300A168A15D5
:102B8800EE230A168A11823083120313AA00DD305D
:102B9800A900A90BCD2DAA0BCD2D08002508F300FF
:102BA8002408F2002308F1002208F0000030F700A2
:102BB8000030F6000030F5000030F4000A168A11E3
:102BC80043210A168A110318EB2DBF30EC2D3F3034
:102BD8008316A9000030A8000030A7000030A60026
:102BE80025088312C100831624088312C0008316A7
:102BF80023088312BF00831622088312BE004130C7
:102C0800BD002030BC000030BB000030BA000A1202
:102C18008A152A250A168A113D08DB003C08DA00C5
:102C28003B08D9003A08D800831629088312D70030
:102C3800831628088312D600831627088312D50026
:102C4800831626088312D4000A128A1534230A161A
:102C58008A115708EB005608EA005508E90054089D
:102C6800E8000A168A1585260A168A118312690849
:102C78008316AB00831268088316AA002508F300A0
:102C88002408F2002308F1002208F0000030F700C1
:102C98000030F6000030F5000030F4000A168A1102
:102CA80043210A168A110318662E2D300A168A1532
:102CB80087240A168A1183160313AA09AB09AA0ADC
:102CC8000319AB0A0A30F7000030F8006430F0004E
:102CD8000030F10083162B08F3002A08F2000A16C8
:102CE8008A154D240A168A117108FA007008F9002D
:102CF8000A128A1504200A168A117708303E0A1625
:102D08008A1587240A168A110A30F7000030F8005D
:102D18000A30F0000030F100831603132B08F3008B
:102D28002A08F2000A168A154D240A168A11710813
:102D3800FA007008F9000A128A1504200A168A1186
:102D48007708303E0A168A1587240A168A112E300B
:102D58000A168A1587240A168A110A30F7000030E5
:102D6800F800831603132B08FA002A08F9000A1240
:102D78008A1504200A168A117708303E0A168A1521
:102D8800872408000711753083120313D700E03039
:102D9800D600D60BCD2ED70BCD2E000083120313F1
:102DA8000715413083120313D600D60BD92EDC2E1B
:102DB8008316031307158312071DE82E83160711C0
:102DC8008312071500300800843083120313D600DD
:102DD800D60BEC2E000083120313071DE22E84305D
:102DE80083120313D600D60BF72E000083120313A9
:102DF800E501DC01E401071DFF2E393083120313BE
:102E0800D600D60B052F000083120313071D192FB8
:102E18000130D6006408073C013E142F0310D60D7C
:102E2800FF3E031D122F5608DC040719192F013025
:102E3800E40708306402031CFF2E65085D3E840029
:102E48005C08831380000130E50705306502031C28
:102E5800FD2E83160711831207155F085E07D6003B
:102E680060085607D7005D0857076106031DE62E60
:102E78005E08D600D7015D08D800D9015808D900E6
:102E8800D80156085804DA0057085904DB006008CE
:102E9800D600D7015F08D800D9015808D900D80151
:102EA80056085804E20057085904E300E31FA22F0C
:102EB800BF30BD008030BC000030BB000030BA001D
:102EC8004130A3002030A2000030A1000030A00053
:102ED800FF306205F0007F306305F100F201F30175
:102EE80000300A168A11D6210A168A117308A7001B
:102EF8007208A6007108A5007008A4000A128A15B5
:102F0800A4210A168A112308C1002208C00021083A
:102F1800BF002008BE000A128A152A250A168A113F
:102F2800540884003A0883138000840A3B08800010
:102F3800840A3C088000840A3D08D02F4130A30051
:102F48002030A2000030A1000030A0006208F0008C
:102F58006308F100F201F30100300A168A11D62144
:102F68000A168A117308A7007208A6007108A5003E
:102F78007008A4000A128A15A4210A168A11540896
:102F88008400200883138000840A21088000840AB2
:102F980022088000840A230880004130A3002030E2
:102FA800A2000030A1000030A0005A08F0005B0821
:102FB800F100F201F30100300A168A11D6210A162F
:102FC8008A117308A7007208A6007108A500700886
:102FD800A4000A128A15A421550884002008831326
:102FE8008000840A21088000840A22088000840A5C
:082FF8002308800001300800ED
:1033A80083160313871183128711080083160313EA
:1033B8000712831207120800E8340334003400347B
:1033C800FF34013464008001840A040603190034C0
:1033D8000406E729831603130610861006158611BE
:1033E800831206148611861408000A168A15072205
:1033F8000A168A15C330F200CD30F100F10B022A0B
:10340800F20B022A08000A128A1104200A168A15E9
:103418000A128A1500200A168A150830F000F00BE7
:10342800132A0800F200F101721C1C2A7008F10727
:103438000310F00D0310F20C7208031D182A71080E
:1034480008000A168A1588220A168A15D0300A1624
:103458008A15C3240A168A15F4000A168A15A322A7
:103468007408080083160711831207150330F20049
:103478008A30F1005530F000F00B402AF10B402A59
:10348800F20B402A472A0800F5000F307505F300B3
:103498000A30F0007508F40004300310F40CFF3E05
:1034A800031D512A74080A168A1516227307080084
:1034B800F000701C612A0816622A0812F01C662A9D
:1034C8008816672A8812701D6B2A08176C2A081339
:1034D800F01D702A881708008813080000300A16A3
:1034E8008A151D230A168A1501300A168A151D2306
:1034F8000A168A158230F500DD30F400F40B822AB2
:10350800F50B822A872A08000A128A1104200A1653
:103518008A150A128A1500200A168A150830F00042
:10352800F00B942A0A168A15DA210A168A15083029
:10353800F000F00B9D2A0A168A15D42108000A16F5
:103548008A15DA210A168A150830F000F00BAA2A23
:103558000A128A1500200A168A150830F000F00BA6
:10356800B32A0A128A1104200A168A150830F000B4
:10357800F00BBC2A0800F100F30170080319DC2ADB
:103588000130F200F01BCD2A0310F00D0130F207D4
:10359800C62A0310F30D70087102031CD72A70089D
:1035A800F10273140310F00C0130F202031DCD2A4E
:1035B80073080800F3000830F400F5017308F100FF
:1035C80007300310F10CFF3E031DE52A7508F200D1
:1035D80072077104F5000310F30D70087502031CDF
:1035E800F72A7008F5020130F402031DE22A750873
:1035F80008008312A3000A30F00023080A168A156F
:10360800BF220A168A150F39303E0A168A158724F2
:103618000A168A150A30F0008312031323080A16C3
:103628008A15DE220A168A15303E0A168A1587245C
:103638000800F30083120313081173080A168A1589
:103648005C220A168A1588151A30F200F830F10043
:10365800F10B2C2BF20B2C2B000083120313881177
:103668001A30F200F830F100F10B382BF20B382B3E
:1036780000000800F401F501701C482B7208F407DB
:103688000318F50A7308F50701300310F20DF30D5E
:10369800FF3E031D492B01300310F10CF00CFF3ED7
:1036A800031D502B70087104031D402B7508F10091
:1036B8007408F0000800F800F401F5017008F20041
:1036C800F3017208F6007308F700781C712B76086E
:1036D800F4070318F50A7708F50701300310F60D0B
:1036E800F70DFF3E031D722B0310F80C7808031D1D
:1036F800692B7508F1007408F0000800F6007603DD
:10370800031D892B74087F3E8B2B7408BF3EF9007C
:103718007908F50004300310F50CFF3E031D8F2BCC
:103728007508F7007908F8000F30F80577080A16C9
:103738008A151D230A168A1578080A168A151D2364
:103748000800A401A5012408230784000A168A1189
:103758000A200A168A15003A0319080024082307C4
:1037680084000A168A110A200A168A150A168A156A
:1037780087240A168A15013083120313A407031835
:10378800A50A0030A507A72B83120313050CF00028
:10379800700C0139F2007208031DE62B83166E03C4
:1037A800031DE62BC330F100CD30F000F00BDA2B0F
:1037B800F10BDA2B831203130519E62B8316EE019E
:1037C800013008007203031DEC2B01308316EE0054
:1037D80000300800F300F501F401F31FF72B831202
:1037E80003138614FA2B8312031386100310F30DA8
:1037F8008615FE2BFF2B000083120313060CF00026
:10380800700C0139F1007508F20072077104F500B7
:1038180086110E2C0F2C00000130F40708307402BA
:10382800031CF12B75080800831668088312AA0088
:1038380001300310AA0DFF3E031D1D2C03102A0D95
:10384800AD3E8400260883178000840A270880007C
:10385800840A28088000840A290880000630A0000D
:103868000030A10083166808013E8312A2000030D0
:1038780003180130A3000A168A158C250A168A1522
:1038880020088316E8006808031D08000130E700D7
:103898000800F401F501700871040319822C013045
:1038A800F600F11B612C01300310F00DF10DFF3E05
:1038B800031D582C0130F607552C01300310F40D68
:1038C800F50DFF3E031D622C71087302031D6E2C5B
:1038D80070087202031C772C7008F2027108031C2E
:1038E800F303F302741401300310F10CF00CFF3EE3
:1038F800031D782C0130F602031D612C7508F100B8
:103908007408F000080083120313A2002208A00024
:103918000F30A0052208A100F030A10508152108E4
:10392800FC0004300310FC0CFF3E031D962C7C08A1
:103938000A168A155C220A168A1588154230FC0078
:10394800FC0BA42C000083120313881120080A160C
:103958008A155C220A168A1588154230FC00FC0B71
:10396800B32C00008312031388110D30FD00FB30C7
:10397800FC00FC0BBD2CFD0BBD2CC22C0800F1007B
:10398800F301F11FCD2C0A128A1104200A168A1598
:10399800D22C0A168A15DA210A168A150A128A15ED
:1039A80000200A168A150830F000F00BD92C0A16E8
:1039B8008A15D4210A168A150310F10D0130F30770
:1039C80008307302031CC52C0A128A1104200A1637
:1039D8008A150A128A1500200A168A150830F0007E
:1039E800F00BF42C031083120313071E031400308A
:1039F80003180130F2000A168A15D421720808004B
:103A0800F100F2010A128A1104200A168A15F3013C
:103A18000310F20D0A128A1500200A168A150830BA
:103A2800F000F00B152D83120313071A72140A16EF
:103A38008A15D4210A168A150130F3070830730253
:103A4800031C0D2D710803192F2D0A168A15DA216A
:103A58000A168A15342D0A128A1104200A168A15A4
:103A68000A128A1500200A168A150830F000F00B91
:103A78003B2D0A168A15D4210A168A150A128A11AC
:103A8800042072080800B2014F2D323032020318A8
:103A98005E2D0130B2073208300784003108031860
:103AA800310AFF000A168A1100200A168A15003A00
:103AB800031D492D83166C088312A30083166B0817
:103AC8008312A20083166A088312A100831669086C
:103AD8008312A0000030A400A5003008A600310819
:103AE800A7003208A8000A168A11EF2401308316AD
:103AF8000313E907003003180130EA070030031800
:103B08000130EB07003003180130EC0701300800E2
:103B1800A501A31F962DA209A309A20A0319A30AA6
:103B28000130A500A11F9D2DA009A109A00A031914
:103B3800A10A200821040319C82D0130A400A11BE3
:103B4800AF2D01300310A00DA10DFF3E031DA62DC2
:103B58000130A407A32D21082302031DB52D200839
:103B68002202031CBD2D2008A2022108031CA30366
:103B7800A30201300310A10CA00CFF3E031DBE2DB3
:103B88000130A402031DAF2D25080319D02DA20969
:103B9800A309A20A0319A30A2308A1002208A00066
:103BA8000800FB01F71FDF2DF609F709F60A0319CC
:103BB800F70A0130FB00F91FE82DF809F909F80A9E
:103BC8000319F90A0130FB06FC01FD0176087704A8
:103BD80003191D2E0130FA00F71BFC2D01300310CC
:103BE800F60DF70DFF3E031DF32D0130FA07F02DFA
:103BF80001300310FC0DFD0DFF3E031DFD2D770860
:103C08007902031D092E76087802031C122E760805
:103C1800F8027708031CF903F9027C140130031039
:103C2800F70CF60CFF3E031D132E0130FA02031D9C
:103C3800FC2D7B080319252EFC09FD09FC0A031934
:103C4800FD0A7D08F7007C08F60008007008023EAF
:103C5800F20071080318013E003EF3007208840068
:103C68008317731C831380017008013EF4007108E8
:103C78000318013E003EF500740884008317751C84
:103C880083138001700884008317711C83138001DB
:103C98007008063EF20071080318013E003EF3006A
:103CA800720884008317731C831380017008053E13
:103CB800F40071080318013E003EF5007408840002
:103CC8008317751C831380017008043EF600710881
:103CD8000318013E003EF700760884008317771C1E
:103CE800831380017008033EF80071080318013E31
:103CF800003EF900780884008317791C831380013B
:103D0800080003106A0D6B0D8316A1002108031D1E
:103D1800972E00308312EB000030EA000030E900F3
:103D28000030E800080083126808EC006908ED001C
:103D38006A08EE006B08EF001F300310EF0CEE0C62
:103D4800ED0CEC0CFF3E031DA12E6C088316A000A1
:103D58008312EA17FF30E805FF30E905FF30EA056E
:103D68000030EB0596308316A102A11FD02E210842
:103D7800803A973E031C8D2E013003108312EB0C02
:103D8800EA0CE90CE80CFF3E031DC12E0130831636
:103D9800A1070319E52EC02E2030210203188D2E0D
:103DA80021080319E52E01308312EC000310E80DF9
:103DB800E90DEA0DEB0DEC0BDA2E01308316A102AA
:103DC800D42E2008031908008312E809E909EA0932
:103DD800EB09E80A0319E90A0319EA0A0319EB0AC5
:103DE8000800F401F40A01300A168A1582230A161B
:103DF8008A15913083120313A3000A168A15A52386
:103E08000A168A159D308316AC000130AD002C08C7
:103E1800840083172D1C83130008A200840A00085D
:103E2800A300840A0008A400840A0008A5000A1652
:103E38008A11D2250A168A15783083120313A30033
:103E48000A168A15A5230A168A15A5308316AC000A
:103E58000130AD002C08840083172D1C8313000843
:103E6800A200840A0008A300840A0008A400840AA7
:103E78000008A5000A168A11D2250A168A15F40127
:103E8800F40A02300A168A1582230A168A15953012
:103E980083120313A3000A168A15A5230A168A1586
:103EA800A1308316AC000130AD002C0884008317C4
:103EB8002D1C83130008A200840A0008A300840AAA
:103EC8000008A400840A0008A5000A168A11D22551
:103ED8000A168A15653083120313A3000A168A1579
:103EE800A5230800F401F40A01300A168A15822372
:103EF8000A168A15873083120313A3000A168A1537
:103F0800A5230A168A1599308316AC000130AD0036
:103F18002C08840083172D1C83130008A200840A30
:103F28000008A300840A0008A400840A0008A50069
:103F38000A168A11D2250A168A156D3083120313C0
:103F4800A3000A168A15A5230A168A15A93083160E
:103F5800AC000130AD002C08840083172D1C83139E
:103F68000008A200840A0008A300840A0008A4002C
:103F7800840A0008A5000A168A11D2250A168A158D
:103F8800F401F40A02300A168A1582230A168A15E1
:103F9800823083120313A3000A168A15A5230A1672
:103FA8008A1591308316AC000130AD002C088400CE
:103FB80083172D1C83130008A200840A0008A3009D
:103FC800840A0008A400840A0008A5000A168A11B9
:103FD800D2250A168A158C3083120313A3000A16F9
:103FE8008A15A5230A168A15831603171008303E6A
:083FF8000A168A15872408004F
:04400E00E220FF3F6E
:00000001FF
