:060000000A128A11C52F4F
:10000A008312A101F71F1028F609F709F60A031946
:10001A00F70AA101A10AF91F1B28F809F909F80A28
:10002A000319F90A0130FA007A08A106A201A3010C
:10003A007608770403195228A001A00AF71B312871
:10004A0001300310F60DF70DFF3E031D262801307F
:10005A00FA007A08A007232801300310A20DA30D85
:10006A00FF3E031D322877087902031D3E287608D1
:10007A007802031C47287608F8027708031CF9035C
:10008A00F902221401300310F70CF60CFF3E031D8F
:10009A0048280130A002031D3128210803195A28D3
:1000AA00A209A309A20A0319A30A2308F70022082E
:1000BA00F600080027088039A8002808B100270898
:1000CA00A8002807A9002908B800A61B3814380870
:1000DA0003197D28380A031D7A280030A70000304A
:1000EA00A6000030A5000030A400A617A7018528A5
:1000FA000030A7000030A6000030A5000030A400A0
:10010A0023088039A8002808B1062308A800280770
:10011A00A9002908B900A21B391439080319A32810
:10012A00390A031DA0280030A3000030A2000030C5
:10013A00A1000030A000A217A301AB280030A30041
:10014A000030A2000030A1000030A00023082204E1
:10015A0021042004031DCA280030A7000030A6008D
:10016A000030A5000030A4008030A6047F30A70428
:10017A003108A8002808A7042708A3002608A20017
:10018A002508A1002408A00008003808031DD62865
:10019A000030A3000030A2000030A1000030A0000F
:1001AA0008003808A800A9012908AB003908280264
:1001BA00AA00031CAB032A087F3EB2002B080318CF
:1001CA00013E003EB3002708B0002608AF0025080C
:1001DA00AE002408AD000030A7000030A6000030B1
:1001EA00A5000030A4000030B7000030B60000308F
:1001FA00B5000030B400B9011A3039020318492990
:10020A003908031925290130A8000310AD0DAE0DD8
:10021A00AF0DB00DA80B0A290130A8000310A40DD8
:10022A00A50DA60DA70DA80B1329B71B2414013081
:10023A00A8000310B40DB50DB60DB70DA80B1E29F5
:10024A0023083002031D332922082F02031D3329F4
:10025A0021082E02031D332920082D02031C4429DC
:10026A0037172008AD022108031C210FAE0222080D
:10027A00031C220FAF022308031C230FB002013014
:10028A00A8002808B907012930082F042E042D04D4
:10029A00031D3414A61B6C290130A8000310A40DF9
:1002AA00A50DA60DA70DA80B5329B71B24140130C1
:1002BA00A8000310B40DB50DB60DB70DA80B5E2935
:1002CA00FF30B2070318B30AFF30B3074F29B90149
:1002DA00B71F8529FF303405A800FF303505A9006E
:1002EA00FF303605AA007F303705AB002B082A04F9
:1002FA00290428040319241883298529B901B90A6C
:10030A0039080319B7290130A4070030031801304E
:10031A00A507003003180130A60700300318013082
:10032A00A707271CB7292408A8002508A90026081A
:10033A00AA002708AB000130AC002B0DAB0CAA0CAD
:10034A00A90CA80CAC0BA2292B08A7002A08A60006
:10035A002908A5002808A4000130B2070318B30A27
:10036A000030B3073308803AFF0080307F02031D54
:10037A00C029FF303202031CD029FF308312031335
:10038A00B2000030B3000030A7000030A6000030F1
:10039A00A5000030A400831203133308803AFF003B
:1003AA0080307F02031DDB29013032020318EA295B
:1003BA0083120313B201B3010030A7000030A60074
:1003CA000030A5000030A400B101831203133208E3
:1003DA00A8002808B800381CF429A617F8297F3085
:1003EA00A8002808A6053808A8000310280CA900A8
:1003FA002908A700BD2800308316D6000030D50092
:10040A000030D4000030D3000030D2000030D100D8
:10041A000030D0000030CF00C901C801031788019D
:10042A008901031305150A168A1575270A128A11F6
:10043A000A168A1535220A128A11F401F40A0130C1
:10044A000A168A15B0230A128A1144300A168A1526
:10045A0023230A128A110A168A15F6210A128A1108
:10046A000A168A15C8210A128A1103308316031341
:10047A00C2008A30C1005530C000C00B422AC10BED
:10048A00422AC20B422AF401F40A02300A168A15D9
:10049A00B0230A128A1151300A168A1523230A1226
:1004AA008A11033083160313C2008A30C100553003
:1004BA00C000C00B5E2AC10B5E2AC20B5E2A0A1656
:1004CA008A110F220A128A11003A0319B82A023035
:1004DA0083160313C2004530C100A930C000C00B07
:1004EA00742AC10B742AC20B742A0A168A15BC21F3
:1004FA000A128A11003A0319B82AC901C90AF40171
:10050A00F40A02300A168A15B0230A128A11173021
:10051A000A168A1523230A128A1106308316031330
:10052A00C2001330C100AD30C000C00B9A2AC10B03
:10053A009A2AC20B9A2A0130FC008030FD005C30F6
:10054A000A168A1528250A128A11033083160313FC
:10055A00C2008A30C1005530C000C00BB22AC10B9C
:10056A00B22AC20BB22A831603134908031DCB2AE7
:10057A00F401F40A02300A168A15B0230A128A1103
:10058A0035300A168A1523230A128A110D3083166A
:10059A000313C200AF30C100B530C000C00BD32A6C
:1005AA00C10BD32AC20BD32ADA2A0A168A15352294
:1005BA000A128A11D7300A168A1196250A128A1146
:1005CA00CF3083160313C00040088312D400D330FF
:1005DA000A168A11BD260A128A118316C100410819
:1005EA00C70056088312AB00831655088312AA0067
:1005FA00831654088312A900831653088312A8008D
:10060A000A168A1538240A128A118316CE01560848
:10061A00B2005508B1005408B0005308AF005208A0
:10062A00B6005108B5005008B4004F08B300D730DF
:10063A000A168A11D8200A128A111A30831603134D
:10064A00C2005E30C1006D30C000C00B2A2BC10B46
:10065A002A2BC20B2A2B312B0A168A158B230A1234
:10066A008A11003A0319942B03308312A400003034
:10067A00A50083164E08013E8312A6000030031817
:10068A000130A7000A168A1573250A128A1124084E
:10069A008316C0004008CE000A168A1535220A12AF
:1006AA008A11831603134E03031D662B0A128A1539
:1006BA00BE200A128A110A168A1588260A128A1177
:1006CA00862B02304E06031D702B0A168A151F262A
:1006DA000A128A11862B5608B2005508B10054082E
:1006EA00B0005308AF005208B6005108B5005008D0
:1006FA00B4004F08B300D7300A168A11D8200A125C
:10070A008A11063083160313C2001330C100AD30BC
:10071A00C000C00B8E2BC10B8E2BC20B8E2BD73079
:10072A000A168A1196250A128A1183160313480893
:10073A00031DC22BCF30C00040088312D400D3302F
:10074A000A168A11BD260A128A118316C1004108A7
:10075A00C70056088312AB00831655088312AA00F5
:10076A00831654088312A900831653088312A8001B
:10077A000A168A1538240A128A1183164E08031D8E
:10078A00DC2B5608B2005508B1005408B0005308D3
:10079A00AF005208B6005108B5005008B4004F081F
:1007AA00B300D7300A168A11D8200A128A110530E6
:1007BA0083120313A4000030A50083164808013EE3
:1007CA008312A600003003180130A7000A168A1502
:1007DA0073250A128A1124088316C0004008C8002B
:1007EA004E08031DB52F0530C0004008F000580818
:1007FA000A168A1568230A128A11003A031DB52FB0
:10080A008316031358086C060319B52F5808C0003D
:10081A004008EC0049080319B52F47080319B52FFA
:10082A00C230F3002030F2000030F1000030F00056
:10083A005608F7005508F6005408F5005308F40066
:10084A000A168A1145200A128A110318B52F83162F
:10085A005608F3005508F2005408F1005308F00056
:10086A004230F700A030F6000030F5000030F40006
:10087A000A168A1145200A128A110318B52F003068
:10088A00F3000030F2000030F1000030F00083166F
:10089A005208F7005108F6005008F5004F08F40016
:1008AA000A168A1145200A128A110318B52F8316CF
:1008BA005208F3005108F2005008F1004F08F00006
:1008CA004230F700C830F6000030F5000030F4007E
:1008DA000A168A1145200A128A110318B52F83169F
:1008EA00DE010A30C0004008F0005B080A168A15CB
:1008FA00E1220A128A11303E8316C1005E08C53E03
:10090A0084004108831780000130C0004008DE07D8
:10091A000A30C0004008F0005B080A168A156823EE
:10092A000A128A11303E83160313C1005E08C53EBF
:10093A0084004108831780000130C0004008DE07A8
:10094A002F30C0005E08C53E840040088000013098
:10095A00C0004008DE070A30C0004008F0005C080A
:10096A000A168A15E1220A128A11303E8316C1003C
:10097A005E08C53E84004108831780000130C0002C
:10098A004008DE070A30C0004008F0005C080A167A
:10099A008A1568230A128A11303E83160313C1008E
:1009AA005E08C53E84004108831780000130C000FC
:1009BA004008DE072F30C0005E08C53E84004008AC
:1009CA0080000130C0004008DE070A30C00040083D
:1009DA00F0005D080A168A15E1220A128A11303ED1
:1009EA008316C1005E08C53E840041088317800053
:1009FA000130C0004008DE070A30C0004008F0009D
:100A0A005D080A168A1568230A128A11303E83166F
:100A1A000313C1005E08C53E8400410883178000A5
:100A2A000130C0004008DE072C30C0005E08C53E19
:100A3A008400400880000130C0004008DE070A3008
:100A4A00C0004008F00059080A168A15E1220A1265
:100A5A008A11303E8316C1005E08C53E84004108F3
:100A6A00831780000130C0004008DE070A30C0004A
:100A7A004008F00059080A168A1568230A128A11D2
:100A8A00303E83160313C1005E08C53E8400410848
:100A9A00831780000130C0004008DE073A30C000EA
:100AAA005E08C53E8400400880000130C00040084E
:100ABA00DE070A30C0004008F00058080A168A15F6
:100ACA00E1220A128A11303E8316C1005E08C53E31
:100ADA0084004108831780000130C0004008DE0707
:100AEA000A30C0004008F00058080A168A15682320
:100AFA000A128A11303E83160313C1005E08C53EEE
:100B0A0084004108831780000130C0004008DE07D6
:100B1A002C30C0005E08C53E8400400880000130C9
:100B2A00C0004008DE075608F3005508F2005408D2
:100B3A00F1005308F0000030F7000030F6000030F2
:100B4A00F5000030F4000A168A1145200A128A11AB
:100B5A000318B12DBF30B22D3F308316C6000030C6
:100B6A00C5000030C4000030C30056088312C1001B
:100B7A00831655088312C000831654088312BF00D7
:100B8A00831653088312BE004130BD002030BC00DA
:100B9A000030BB000030BA000A128A150B250A126F
:100BAA008A113D08DB003C08DA003B08D9003A0804
:100BBA00D800831646088312D70083164508831285
:100BCA00D600831644088312D5008316430883127D
:100BDA00D4000A128A15DE220A128A115708EB007B
:100BEA005608EA005508E9005408E8000A168A156A
:100BFA00FA260A128A1169088316CD008312680838
:100C0A008316CC00CD1F1A2E2D30C0005E08C53EBB
:100C1A0084004008831780000130C0004008DE07C6
:100C2A00CC09CD09CC0A0319CD0A6430F60000308C
:100C3A00F7004D08F9004C08F8000A128A1105203D
:100C4A000A128A1176080F39303E8316C0005E08F0
:100C5A00C53E84004008831780000130C000400868
:100C6A00DE070A308312A4000030A5000A30F6001D
:100C7A000030F70083164D08F9004C08F8000A12F4
:100C8A008A1105200A128A117708A7007608A60099
:100C9A000A168A1573250A128A1124080F39303E5A
:100CAA008316C0005E08C53E840040088317800092
:100CBA000130C0004008DE072E30C0005E08C53E85
:100CCA008400400880000130C0004008DE070A3076
:100CDA008312A4000030A50083164D088312A700D2
:100CEA0083164C088312A6000A168A1573250A125F
:100CFA008A1124080F39303E8316C0005E08C53EAB
:100D0A0084004008831780000130C0004008DE07D5
:100D1A002C30C0005E08C53E8400400880000130C7
:100D2A00C0004008DE0752088312C100831651082A
:100D3A008312C000831650088312BF0083164F081F
:100D4A008312BE004130BD002030BC000030BB0021
:100D5A000030BA000A128A150B250A128A113D08B8
:100D6A00DB003C08DA003B08D9003A08D8003F30DB
:100D7A00D7000030D6000030D5000030D4000A1267
:100D8A008A15DE220A128A115708EB005608EA0071
:100D9A005508E9005408E8000A168A15FA260A12C4
:100DAA008A1169088316CB00831268088316CA0061
:100DBA000A30F8000030F9006430F0000030F10029
:100DCA004B08F3004A08F2000A168A156B240A1225
:100DDA008A117108FB007008FA000A168A1506249F
:100DEA000A128A117808303EC0005E08C53E8400A7
:100DFA004008831780000130C0004008DE070A302F
:100E0A00F8000030F9000A30F0000030F1004B0819
:100E1A00F3004A08F2000A168A156B240A128A118C
:100E2A007108FB007008FA000A168A1506240A12CD
:100E3A008A117808303EC0005E08C53E840040082A
:100E4A00831780000130C0004008DE072E30C00042
:100E5A005E08C53E8400400880000130C00040089A
:100E6A00DE070A30F8000030F9004B08FB004A0898
:100E7A00FA000A168A1506240A128A117808303EE0
:100E8A00C0005E08C53E8400400883178000013018
:100E9A00C0004008DE070D30C0005E08C53E840071
:100EAA00400880000130C0004008DE070A30C00058
:100EBA005E08C53E8400400880000130C00040083A
:100ECA00DE075E08C53E84008001C530FC000130A3
:100EDA00FD005C300A168A1528250A128A11003A82
:100EEA000319972F0F30C0004008F40002300A1689
:100EFA008A15B0230A128A1153300A168A15A724B2
:100F0A000A128A110D3083160313C200AF30C100D2
:100F1A00B530C000C00B8F2FC10B8F2FC20B8F2F84
:100F2A00962FB52FC901F401F40A02300A168A1560
:100F3A00B0230A128A1126300A168A1523230A12A6
:100F4A008A111A3083160313C2005E30C1006D3055
:100F5A00C000C00BAE2FC10BAE2FC20BAE2FB52FE8
:100F6A000D3083160313C200AF30C100B530C00084
:100F7A00C00BBD2FC10BBD2FC20BBD2FC42F312BF0
:100F8A0083160A168A15A3210A128A11E8000A167C
:100F9A008A15A4210A128A11E9000A168A15A521BE
:100FAA000A128A11EA000A168A15A6210A128A1159
:100FBA00EB000A168A15A7210A128A11EC000A16F2
:100FCA008A15A8210A128A11ED008317903084002D
:100FDA00ED300A168A15A9210A128A118313DF3005
:100FEA008400E8300A168A15A9218312EF018301C9
:100FFA000A128A11002AFF1B0A2883137F188317F3
:10100A000008840A0319FF0A080008308A00040845
:10101A00840A8207003446346534633468346134A0
:10102A002C3448346F34723461342C34543465347B
:10103A006D3470342C34483475346D340D340A34BC
:10104A0000345334443420344F344B342134203464
:10105A002034203420342034203420342034003406
:10106A005334443420344634413449344C342134E2
:10107A0020342034203420342034203400345334B3
:10108A00443420344534723472346F347234213427
:10109A0020342034203420342034003449346E344F
:1010AA00693474342034533465346E3473346F3491
:1010BA0072347334003449346E34693474342034ED
:1010CA00533444342E342E342E34003444344134D0
:1010DA00543441342E345434583454340034433460
:1010EA002034203420342034203420340034203476
:1010FA004D34613478343A34003425342034203481
:10110A00203400342034513433343A3400344334F4
:10111A00203448343A3400344D34653464343A3433
:10112A0000344D3469346E343A3400344334203454
:10113A006E343D340034513431343A34003451344D
:10114A0032343A34003454343A3400340A168A15A4
:10115A004B220A128A15D0300A168A15E5240A1279
:10116A008A15F4007408F5000A168A1566227508AD
:10117A0008006708031DCD2883126F08E800E901FB
:10118A0068088316B800831269088316B900D12843
:10119A000630B8000030B90038088312E800680841
:1011AA008316BE000030BD000030BC000030BB001A
:1011BA000030BA003E08031908003E088312E8000E
:1011CA00680883160317900030089C002F089B00BC
:1011DA002E089A002D0899003008AC002F08AB00A1
:1011EA002E08AA002D08A9000313BF013E083F02DA
:1011FA0003180E2A3F088312E80001300310E80D95
:10120A00FF3E031D03290310680DAD3E84008317BA
:10121A000008E900840A0008EA00840A0008EB00D2
:10122A00840A0008EC0083163F088312ED0001309F
:10123A000310ED0DFF3E031D1D2903106D0DA03E89
:10124A008400690883138000840A6A088000840A7B
:10125A006B088000840A6C08800083163F0883129A
:10126A00E80001300310E80DFF3E031D3729031083
:10127A00680DAD3E840083170008D400840A000874
:10128A00D500840A0008D600840A0008D70083160D
:10129A003D088312DB0083163C088312DA008316AA
:1012AA003B088312D90083163A088312D8000A121F
:1012BA008A15DE220A128A1557088316BD00831280
:1012CA0056088316BC00831255088316BB00831286
:1012DA0054088316BA003F088312E800013003104D
:1012EA00E80DFF3E031D74290310680DAD3E84000E
:1012FA0083170008F000840A0008F100840A000835
:10130A00F200840A0008F3000930903E84000008C5
:10131A00F400840A0008F500840A0008F600840A2A
:10132A000008F7000A168A1145200A128A150318BE
:10133A00BA2983163F088312E80001300310E80D2A
:10134A00FF3E031DA3290310680DAD3E84008317D9
:10135A000008831603179900840A00089A00840A71
:10136A0000089B00840A00089C001930903E840003
:10137A0083170008F000840A0008F100840A0008B4
:10138A00F200840A0008F300831603133F0883124D
:10139A00E80001300310E80DFF3E031DCF290310BA
:1013AA00680DAD3E84000008F400840A0008F500C8
:1013BA00840A0008F600840A0008F7000A168A114F
:1013CA0045200A128A150318062A83163F08831233
:1013DA00E80001300310E80DFF3E031DEF2903105A
:1013EA00680DAD3E84008317000883160317A90011
:1013FA00840A0008AA00840A0008AB00840A0008CC
:10140A00AC00013083120313E80068088316BF0793
:10141A00FB283E088312E800E901EA01EB016B08A8
:10142A00F3006A08F2006908F1006808F000013068
:10143A000A168A116C210A128A157308A300720807
:10144A00A2007108A1007008A00083163D0883124B
:10145A00A70083163C088312A60083163B08831252
:10146A00A50083163A088312A4000A128A115F2083
:10147A000A128A152308831603179400831203138A
:10148A002208831603179300831203132108831675
:10149A00031792008312031320088316031791007F
:1014AA0003133E088312E8006808FC00A0300A16FD
:1014BA008A11D8220A128A15831603133E08831248
:1014CA00E80002300310E80CFF3E031D672A680893
:1014DA00E90001300310E90DFF3E031D6F2A0310D6
:1014EA00690DA03E840083130008831603179D002C
:1014FA00840A00089E00840A00089F00840A0008E3
:10150A00A00003133E088312E8000310680CE900E8
:10151A0001300310E90DFF3E031D8E2A0310690DE9
:10152A00A03E8400000883160317A100840A00085D
:10153A00A200840A0008A300840A0008A400043058
:10154A00F6000030F70003133E088312E800E901B1
:10155A006808F0006908F1000330F2000030F30077
:10156A000A168A15C0220A128A157108F90070082B
:10157A00F8000A128A1105200A128A157608EA006A
:10158A0001300310EA0DFF3E031DC62A03106A0D3F
:10159A00A03E84008313000883160317A500840A5B
:1015AA000008A600840A0008A700840A0008A80008
:1015BA00080057088039DC005C08E4005708DC00A2
:1015CA005C07DD005D08E600D61B66146608031991
:1015DA00FC2A660A031DF92A0030D7000030D6001B
:1015EA000030D5000030D400D617D701042B0030C4
:1015FA00D7000030D6000030D5000030D4005B0898
:10160A008039DC005C08E50065086406031D641780
:10161A005B08DC005C07DD005D08E500DA1B651489
:10162A0065080319262B650A031D232B0030DB00EE
:10163A000030DA000030D9000030D800DA17DB01B8
:10164A002E2B0030DB000030DA000030D9000030E9
:10165A00D800660865020318742B641F382B803083
:10166A00DC005C08E4066608DC005C08E700650844
:10167A00DC005C08E6006708DC005C08E50054084A
:10168A00DC005C08E7005808DC005C08D400670846
:10169A00DC005C08D8005508DC005C08E700590843
:1016AA00DC005C08D5006708DC005C08D900560835
:1016BA00DC005C08E7005A08DC005C08D600670812
:1016CA00DC005C08DA005708DC005C08E7005B080D
:1016DA00DC005C08D7006708DC005C08DB00E70177
:1016EA006508DC00DD015D08DF0066085C02DE00DB
:1016FA00031CDF035F08803AFF0080307F02031D6E
:10170A00882B1A305E02031CC12B8312031357085D
:10171A005604550454040319942B0130952B0030B8
:10172A00DC005C08E7000030D7000030D60000304B
:10173A00D5000030D4006508DC005C08E600C72B41
:10174A00671CB02B6708DC0003105C0C0138DD0055
:10175A005D08E700B22B0310E70C5418E7170130B5
:10176A00DC00570DD70CD60CD50CD40CDC0BB62BE1
:10177A000130DC005C08E607831203136508660281
:10178A00031CA52B641B082C6608031DD52B0030EF
:10179A00D7000030D6000030D5000030D400080051
:1017AA005808D407590803110318013E031DD50729
:1017BA005A0803110318013E031DD6075B080311DB
:1017CA000318013E031DD707571CAA2C671CF62BCA
:1017DA006708DC0003105C0C0138DD005D08E700D7
:1017EA00F82B0310E70C5418E7170130DC00570DEB
:1017FA00D70CD60CD50CD40CDC0BFC2B0130DC003E
:10180A005C08E607AA2C5708803AFF005B08803A72
:10181A007F02031D1A2C5A085602031D1A2C590856
:10182A005502031D1A2C580854020318722CFF3053
:10183A00DC00FF30DD00FF30DE00FF30DF0058083B
:10184A00E0005908E1005A08E2005B08E300540886
:10185A00E0025508031C550F332C342CE1025608BC
:10186A00031C560F392C3A2CE2025708031C570F57
:10187A003F2C402CE3026008DC0761080318610F63
:10188A00472C482CDD0762080318620F4D2C4E2C9A
:10189A00DE0763080318630ADF075F08D7005E08DC
:1018AA00D6005D08D5005C08D4008030DC005C08F6
:1018BA00E406E709E70A6708031D802C0130D4070C
:1018CA00003003180130D507003003180130D6075D
:1018DA00003003180130D707802C5808D402590861
:1018EA00031C590FD5025A08031C5A0FD6025B086B
:1018FA00031C5B0FD7025708560455045404031DF2
:10190A00A82C6708031DA82C0030D7000030D60089
:10191A000030D5000030D40008000130DC0003108C
:10192A00D40DD50DD60DD70DDC0B942CE71B541412
:10193A00671CA12C0314A22C0310E70D66080319D7
:10194A00A82C0130E602D61F922CE501E71FB52C20
:10195A0067087F3903195418B32CB52CE501E50A39
:10196A0065080319E82C0130D40700300318013048
:10197A00D507003003180130D607003003180130AC
:10198A00D707571CE82C5408DC005508DD00560818
:10199A00DE005708DF000130E0005F0DDF0CDE0CCF
:1019AA00DD0CDC0CE00BD22C5F08D7005E08D600F9
:1019BA005D08D5005C08D400660A0319E82C0130DA
:1019CA00DC005C08E607660A031D6608031DF82C9E
:1019DA000030D7000030D6000030D5000030D400E7
:1019EA0066080319E401661CFC2CD617002D7F300B
:1019FA00DC005C08D6056608DC0003105C0CDD0020
:101A0A005D08D700E41F0800D71708003D08803991
:101A1A00C2004208C7003D08C2004207C30043088B
:101A2A00CD00BC1B4D144D080319282D4D0A031D6A
:101A3A00262D0030BD000030BC000030BB00003055
:101A4A00BA00BC17302D0030BD000030BC00003099
:101A5A00BB000030BA0041088039C2004208C706FC
:101A6A004108C2004207C3004308C800C01B48140B
:101A7A00480803194D2D480A031D4B2D0030C1009B
:101A8A000030C0000030BF000030BE00C017552D26
:101A9A000030C1000030C0000030BF000030BE007E
:101AAA004808031D4D08031D632D0030BD0000309A
:101ABA00BC000030BB000030BA0008003A08C2007F
:101ACA004208F00040080A168A1545230A128A15A8
:101ADA007108D3007008D2005208C200C301C401C1
:101AEA00C5014508CC004408CB004308CA00420897
:101AFA00C9005308C200C301C401C5014508D10089
:101B0A004408D0004308CF004208CE003B08C20078
:101B1A004208F0003F080A168A1545230A128A1558
:101B2A007108D3007008D2005208C200C301C40170
:101B3A00C5014208C907430803110318013E031DE2
:101B4A00CA07440803110318013E031DCB074508C1
:101B5A0003110318013E031DCC075308C200C30139
:101B6A00C401C5014208CE07430803110318013E08
:101B7A00031DCF07440803110318013E031DD007B4
:101B8A00450803110318013E031DD1073C08C20092
:101B9A004208F0003E080A168A1545230A128A15D9
:101BAA007108D3007008D2005208C200C301C401F0
:101BBA00C5014208C907430803110318013E031D62
:101BCA00CA07440803110318013E031DCB07450841
:101BDA0003110318013E031DCC075308C200C301B9
:101BEA00C401C5014208CE07430803110318013E88
:101BFA00031DCF07440803110318013E031DD00734
:101C0A00450803110318013E031DD1070830C2001D
:101C1A000310C90DCA0DCB0DCC0DC20B0D2E3B08FE
:101C2A00C2004208F0003E080A168A1545230A1225
:101C3A008A157108D3007008D2005208C2005308EE
:101C4A00C300C401C5014208C907430803110318A8
:101C5A00013E031DCA07440803110318013E031D70
:101C6A00CB07450803110318013E031DCC073A08A8
:101C7A00C2004208F0003F080A168A1545230A12D4
:101C8A008A157108D3007008D2005208C20053089E
:101C9A00C300C401C5014208C90743080311031858
:101CAA00013E031DCA07440803110318013E031D20
:101CBA00CB07450803110318013E031DCC07083062
:101CCA00C2000310C90DCA0DCB0DCC0DC20B662E76
:101CDA003A08C2004208F0003E080A168A1545234F
:101CEA000A128A157108D3007008D2005208C2007D
:101CFA005308C300C401C5014208C90743080311B8
:101D0A000318013E031DCA07440803110318013EC4
:101D1A00031DCB07450803110318013E031DCC0719
:101D2A003B08C2004208F00040080A168A154523FB
:101D3A000A128A157108D3007008D2005208C2002C
:101D4A005308C300C401C5014208CE074308031162
:101D5A000318013E031DCF07440803110318013E6F
:101D6A00031DD007450803110318013E031DD107BF
:101D7A003C08C2004208F0003F080A168A154523AB
:101D8A000A128A157108D3007008D2005208C200DC
:101D9A005308C300C401C5014208CE074308031112
:101DAA000318013E031DCF07440803110318013E1F
:101DBA00031DD007450803110318013E031DD1076F
:101DCA003C08C2004208F00040080A168A1545235A
:101DDA000A128A157108D3007008D2005208C2008C
:101DEA005308C300C401C50108300310C20DC30D56
:101DFA00C40DC50DFF3E031DFA2E4208CE07430847
:101E0A0003110318013E031DCF07440803110318E9
:101E1A00013E031DD007450803110318013E031DA7
:101E2A00D1074C08C200C301C401C5014208CE074C
:101E3A00430803110318013E031DCF074408031189
:101E4A000318013E031DD007450803110318013E7C
:101E5A00031DD1070830C2000310C90DCA0DCB0DEE
:101E6A00CC0DC20B312F4D084807C200C301C30D68
:101E7A004208823ED20043080318013EFF3ED300C7
:101E8A00D01B622F0130C2000310CE0DCF0DD00D32
:101E9A00D10DC20B492FCC1B4E140130C2000310C6
:101EAA00C90DCA0DCB0DCC0DC20B542FFF30D20772
:101EBA000318D30AFF30D307452FC801CC1F7B2F45
:101ECA00FF304905C200FF304A05C300FF304B0509
:101EDA00C4007F304C05C50045084404430442044D
:101EEA0003194E18792F7B2FC801C80A480803190D
:101EFA00AD2F0130CE07003003180130CF07003074
:101F0A0003180130D007003003180130D107511CE3
:101F1A00AD2F4E08C2004F08C3005008C400510834
:101F2A00C5000130C600450DC50CC40CC30CC20C5B
:101F3A00C60B982F4508D1004408D0004308CF00AB
:101F4A004208CE000130D2070318D30A0030D30763
:101F5A005308803AFF0080307F02031DB62FFF30FE
:101F6A005202031CC32F7F3083120313D100803027
:101F7A00D0000030CF000030CE00F32F83120313BD
:101F8A005308803AFF0080307F02031DCE2F0130B4
:101F9A0052020318DC2F003083120313D1000030E1
:101FAA00D0000030CF000030CE00C701F32F8312DB
:101FBA0003135208C2004208CD00FF30CE05FF309D
:101FCA00CF057F30D0050030D1054D18D0174D0808
:101FDA00C2000310420CC3004308D1004708C200E4
:101FEA004208D1045108BD005008BC004F08BB008C
:101FFA004E08BA000800F100F2010A168A15932168
:10200A000A168A11F3010310F20D0A168A158F2196
:10201A000A168A110830F000F00B112883120313F4
:10202A00071A72140A168A1597210A168A1101309C
:10203A00F0007008F30708307302031C09287108BE
:10204A0003192D280A168A159D210A168A11322883
:10205A000A168A1593210A168A110A168A158F21D9
:10206A000A168A110830F000F00B39280A168A1568
:10207A0097210A168A110A168A15932172080800EE
:10208A0000307005F80000307105F90080307205E3
:10209A00FA007F307305FB007B087A047904780420
:1020AA00031D5F280030F3000030F2000030F10019
:1020BA000030F00000307405F80000307505F900B2
:1020CA0080307605FA007F307705FB007B087A04BA
:1020DA0079047804031D79280030F7000030F600EF
:1020EA000030F5000030F400F31F9F280030F8009C
:1020FA000030F9000030FA008030FB007008F80266
:10210A007108031C710F8A288B28F9027208031CB4
:10211A00720F90289128FA027308031C730F9628ED
:10212A009728FB027B08F3007A08F2007908F1008D
:10213A007808F000F71FC5280030F8000030F900D1
:10214A000030FA008030FB007408F8027508031C9E
:10215A00750FB028B128F9027608031C760FB62845
:10216A00B728FA027708031C770FBC28BD28FB02A0
:10217A007B08F7007A08F6007908F5007808F40079
:10218A008030F3068030F70677087302031D0800D3
:10219A0076087202031D080075087102031D080003
:1021AA007408700208008312EE00F401F40A013088
:1021BA000A168A15B0230A168A11831203136E08A7
:1021CA00043E8400831300080A168A1502230A169D
:1021DA008A112F300A168A15A7240A168A11831221
:1021EA0003136E08053E8400831300080A168A1535
:1021FA0002230A168A112F300A168A15A7240A16EC
:10220A008A11831203136E08063E840083130008A2
:10221A000A168A1502230A168A1124300A168A1502
:10222A0023230A168A11831203136E08023E8400BE
:10223A00831300080A168A1502230A168A113A30ED
:10224A000A168A15A7240A168A11831203136E0A1C
:10225A008400831300080A168A1502230A168A11B3
:10226A00F401F40A02300A168A15B0230A168A11F2
:10227A0099300A168A1523230A168A11831603131C
:10228A003208A8003108A7003008A6002F08A500C8
:10229A000A168A11A3240A168A117D300A168A158B
:1022AA0023230A168A11831603133608A800350851
:1022BA00A7003408A6003308A5000A168A11A32429
:1022CA000A168A1173300A168A1523230800F800A1
:1022DA007808031DF31F81297009FA007109FB00B0
:1022EA007209FC007309FD00FA0A0319FB0A0319B3
:1022FA00FC0A0319FD0A89297308FD007208FC000B
:10230A007108FB007008FA00730872047104700403
:10231A00031D98290030F3000030F2000030F1006C
:10232A000030F00008009630F4007408F900FE301E
:10233A007D050319C9290130F4007408F907013031
:10234A000310FD0CFC0CFB0CFA0CFF3E031DA52927
:10235A009C290130F4007408F9070130FA070030AB
:10236A0003180130FB07003003180130FC07003066
:10237A0003180130FD0701300310FD0CFC0CFB0CA7
:10238A00FA0CFF3E031DC129FF307D050319DD2923
:10239A00AE2902307902031CDF290130F90201302B
:1023AA00F4000310FA0DFB0DFC0DFD0DF40BD629FC
:1023BA00FC1FCE297918E929FF30FA05FF30FB0501
:1023CA007F30FC05FF30FD050310F90C7908F40095
:1023DA00F501F601F70118300310F40DF50DF60DAD
:1023EA00F70DFF3E031DF1297408FA047508FB0472
:1023FA007608FC047708FD047808031DF31F062AF3
:10240A00FD177D08F3007C08F2007B08F1007A08CA
:10241A00F00008000A168A15B1210A168A11061454
:10242A00A501FF300A168A15D8230A168A11013027
:10243A00FC007C0883120313A5070A302502031C3B
:10244A00162A06100730FD007D30FC00FC0B2B2AF3
:10245A00FD0B2B2A83120313A601A7010030FA00F1
:10246A000030F9000030F8000030F70000300A169A
:10247A008A15BE250A168A11013A0319512A013012
:10248A00A6070318A70A0030A70700302702C8309A
:10249A0003192602031C332A00302702C830031905
:1024AA002602031C5B2A0614003008000030FA00DA
:1024BA000030F9000130F800AA30F70008300A1697
:1024CA008A15BE250A168A11FC007C08A40024037A
:1024DA00031D802AA501FF300A168A15D8230A1679
:1024EA008A110130FC007C0883120313A50704300B
:1024FA002502031C702AA601A7010030FA00003049
:10250A00F9000030F8000030F70037300A168A1553
:10251A00BE250A168A114030FA000030F900003050
:10252A00F8000030F70029300A168A15BE250A1667
:10253A008A11003A0319B92A4130FD00EE30FC0035
:10254A00FC0BA52AFD0BA52A0000013083120313F8
:10255A00A6070318A70A0030A70701302702F4309C
:10256A0003192602031C822A01302702F4300319B8
:10257A0026020318582A0030FA000030F900023007
:10258A00F8000030F70010300A168A15BE250A1620
:10259A008A11003A031D582A0614FF300A168A15B2
:1025AA00D82301300800AD00AC017C08FF3EA00032
:1025BA00FF3003180030A1002108803A803C031D37
:1025CA00E82A20082C020318080083120313AE011C
:1025DA007C08A000A1012108A3002C082002A20067
:1025EA00031CA3032208FF3EA40023080318013E8C
:1025FA00FF3EA5002508803A803C031D062B2408CF
:10260A002E020318B32B831203132E08A0000130E5
:10261A000310A00DFF3E031D0D2B0310200D2D07E7
:10262A00A1002108043E840083130008F000840AF4
:10263A000008F100840A0008F200840A0008F30086
:10264A002E08A20001300310A20DFF3E031D282B05
:10265A000310220D2D07A300230884000008F400AC
:10266A00840A0008F500840A0008F600840A0008B3
:10267A00F7000A168A1145200A168A110318AD2B8B
:10268A0083122E08A00001300310A00DFF3E031D87
:10269A00492B0310200D2D07A10021088400831364
:1026AA000008A800840A0008A900840A0008AA00F1
:1026BA00840A0008AB002E08A00001300310A00D08
:1026CA00FF3E031D632B0310200D2D07A1002108D7
:1026DA00043E84000008A200840A0008A300840AB9
:1026EA000008A400840A0008A5002E08A6000130EC
:1026FA000310A60DFF3E031D7D2B0310260D2D078B
:10270A00A7002708840022088000840A2308800082
:10271A00840A24088000840A250880002E08A00064
:10272A0001300310A00DFF3E031D962B0310200D50
:10273A002D07A1002108043E840028088000840A8D
:10274A0029088000840A2A088000840A2B0880004D
:10275A0001308312A0002008AE07ED2A013083124F
:10276A000313A0002008AC07DA2A0614FF300A1661
:10277A008A15D8230A168A11073083120313AE006A
:10278A007C30AD00AD0BC72BAE0BC72B00008312FC
:10279A0003130610073083120313AE007C30AD001A
:1027AA00AD0BD52BAE0BD52B0000831203132708D4
:1027BA00FA002608F9002508F8002408F70018305E
:1027CA000A168A15BE250A168A11AD002D08B1000F
:1027DA0031080319F62B0614FF300A168A15D82376
:1027EA000800073083120313AE007C30AD00AD0B36
:1027FA00FC2BAE0BFC2B0000FE300A168A15D823E0
:10280A000A168A1183120313B201B301290833028B
:10281A00031D112C28083202031C3A2C2C08280705
:10282A00AD0029080318290AAE002E083302031D39
:10283A00202C2D08320203183A2C2B08AE00280847
:10284A002A02AD00031CAE0332082D0784002E08AD
:10285A0003182E0AFF000A128A1500200A168A1186
:10286A00AF002F08B00030083B2CFF300A168A153B
:10287A00D8230A168A11013083120313B2070318E8
:10288A00B30A0030B30702303302003003193202B0
:10289A00031C0B2CFF300A168A15D8230A168A1134
:1028AA00FF300A168A15D8230A168A11FF300A162B
:1028BA008A15D8230A168A1183120313AD002D082C
:1028CA00B1001F303105AD0005302D060319732CF8
:1028DA000614FF300A168A15D8230800B201B3017C
:1028EA00EA3033026030031932020318912CFF30A8
:1028FA000A168A15D8230A168A1183120313AD0001
:10290A002D08B1003108031D912C0130B2070318BC
:10291A00B30A0030B307752C0614FF300A168A155D
:10292A00D8230A168A11823083120313AE00DD30CF
:10293A00AD00AD0B9E2CAE0B9E2C08002808F300B0
:10294A002708F2002608F1002508F0000030F700F9
:10295A000030F6000030F5000030F4000A168A1143
:10296A0045200A168A110318BC2CBF30BD2C3F30F3
:10297A008316AC000030AB000030AA000030A9007A
:10298A0028088312C100831627088312C000831601
:10299A0026088312BF00831625088312BE00413021
:1029AA00BD002030BC000030BB000030BA000A1263
:1029BA008A150B250A168A113D08DB003C08DA0045
:1029CA003B08D9003A08D80083162C088312D7008E
:1029DA0083162B088312D60083162A088312D50081
:1029EA00831629088312D4000A128A15DE220A16CF
:1029FA008A115708EB005608EA005508E9005408FE
:102A0A00E8000A168A15FA260A168A116908831630
:102A1A00AE00831268088316AD002808F300270861
:102A2A00F2002608F1002508F0000030F700003017
:102A3A00F6000030F5000030F4000A168A1145202D
:102A4A000A168A110318362D2D300A168A15A7245C
:102A5A000A168A1183160313AD09AE09AD0A0319C2
:102A6A00AE0A0A30F8000030F9006430F000003095
:102A7A00F10083162E08F3002D08F2000A168A15B3
:102A8A006B240A168A117108FB007008FA000A16EC
:102A9A008A1506240A168A117808303E0A168A15FB
:102AAA00A7240A168A110A30F8000030F9000A3001
:102ABA00F0000030F100831603132E08F3002D08EE
:102ACA00F2000A168A156B240A168A117108FB008D
:102ADA007008FA000A168A1506240A168A11780856
:102AEA00303E0A168A15A7240A168A112E300A16AB
:102AFA008A15A7240A168A110A30F8000030F9004C
:102B0A00831603132E08FB002D08FA000A168A15ED
:102B1A0006240A168A117808303E0A168A15A7244E
:102B2A000800FA000A128A15AB200A168A11003A1E
:102B3A00031DA42D7A080A168A15822208000A168D
:102B4A008A154B220A168A11D0300A168A15E524EC
:102B5A000A168A11003A031DBC2D0A168A15662226
:102B6A000A168A117A080A168A1582220800003083
:102B7A000A168A15E5240A168A11003A031DCF2D72
:102B8A000A168A1566220A168A117A080A168A15F8
:102B9A00822208000A168A154B220A168A11D13097
:102BAA000A168A15E5240A168A11003A031DE72D2A
:102BBA000A168A1566220A168A117A080A168A15C8
:102BCA008222080001300A168A1100200A168A1188
:102BDA00F8007808F90079087F390A168A15092257
:102BEA000A168A11F8007A0884007808831380008C
:102BFA0001300A168A1100200A168A11F80078088C
:102C0A00F90079087F390A168A1509220A168A11E3
:102C1A00F8007A0A840078088313800001300A16C3
:102C2A008A1100200A168A11F8007808F900790832
:102C3A003F390A168A1509220A168A11F8007A08F3
:102C4A00023E840078088313800001300A168A1134
:102C5A0000200A168A11F8007808F900790807395D
:102C6A000A168A1509220A168A11F8007A08033EFA
:102C7A00840078088313800001300A168A11002024
:102C8A000A168A11F8007808F90079083F390A16F5
:102C9A008A1509220A168A11F8007A08043E840065
:102CAA0078088313800001300A168A1100200A1658
:102CBA008A11F8007808F90079081F390A168A1566
:102CCA0009220A168A11F8007A08053E8400780853
:102CDA008313800000300A168A1100200A168A110E
:102CEA00F8007808F90079080A168A1509220A16DE
:102CFA008A11F8007A08063E840078088313800057
:102D0A000A168A1566220A168A117A0884003C3045
:102D1A00831300020318B82E7A0A84003C3000029A
:102D2A000318B82E7A08023E8400183000020318ED
:102D3A00B82E7A08043E840000080319B82E7A08CF
:102D4A00043E8400203000020318B82E7A08053E9B
:102D5A00840000080319B82E7A08053E84000D3055
:102D6A000002031C08007A080A168A158222080043
:102D7A00E1000711753083120313D600E030D50045
:102D8A00D50BC52ED60BC52E0000831203130715CB
:102D9A00413083120313D500D50BD12ED42E8316BE
:102DAA00031307158312071DE02E831607118312DA
:102DBA00071500300800843083120313D500D50BA1
:102DCA00E42E000083120313071DDA2E84308312C7
:102DDA000313D500D50BEF2E000083120313E50170
:102DEA00DB01E401071DF72E393083120313D500E6
:102DFA00D50BFD2E000083120313071D132F01307C
:102E0A00D5006408073C013E0C2F0310D50DFF3E88
:102E1A00031D0A2F5508D6005608DB040719132F7D
:102E2A000130D5005508E40708306402031CF72E68
:102E3A005B08D50065085C3E840055088313800052
:102E4A000130D5005508E50705306502031CF52E4B
:102E5A0083160711831207155E085D07D5005F0800
:102E6A005507D6005C0856076006031DDE2E5D086E
:102E7A00D500D6015C08D700D8015708D800D70179
:102E8A0055085704D90056085804DA005F08D500D7
:102E9A00D6015E08D700D8015708D800D7015508CF
:102EAA005704E20056085804E300E31FA22FBF307C
:102EBA00BD008030BC000030BB000030BA00413099
:102ECA00A3002030A2000030A1000030A000FF3093
:102EDA006205F0007F306305F100F201F301003072
:102EEA000A168A116C210A168A117308A700720839
:102EFA00A6007108A5007008A4000A128A115F20B2
:102F0A000A168A112308C1002208C0002108BF003E
:102F1A002008BE000A128A150B250A168A116108B2
:102F2A0084003A0883138000840A3B088000840ADC
:102F3A003C088000840A3D08D02F4130A30020308D
:102F4A00A2000030A1000030A0006208F00063086F
:102F5A00F100F201F30100300A168A116C210A16F7
:102F6A008A117308A7007208A6007108A5007008E4
:102F7A00A4000A128A115F200A168A1161088400C5
:102F8A00200883138000840A21088000840A22080A
:102F9A008000840A230880004130A3002030A20068
:102FAA000030A1000030A0005908F0005A08F100D2
:102FBA00F201F30100300A168A116C210A168A11ED
:102FCA007308A7007208A6007108A5007008A4007B
:102FDA000A128A115F205408840020088313800093
:102FEA00840A21088000840A22088000840A2308AF
:062FFA0080000130080018
:10331E008316031387150800831603130716080078
:10332E008316031387118312871108008316031364
:10333E000712831207120800E834033400340034F5
:10334E00FF34013464008001840A0406031900343A
:10335E000406AA2983160313061086100615861175
:10336E008312061486118614080000308316031388
:10337E00EB000030EA000330E900E830E8000130ED
:10338E0008000A168A15D6210A168A15C330F200CD
:10339E00CD30F100F10BD129F20BD12908000A161C
:1033AE008A1593210A168A150A168A158F210A166E
:1033BE008A150830F000F00BE2290800F300F20144
:1033CE00731CED297008F1007108F2070310F00D5F
:1033DE000310F30C7308031DE72972080800831607
:1033EE0003130711831207150330F2008A30F10020
:1033FE005530F000F00B012AF10B012AF20B012AD5
:10340E00082A0800F7000F307705F4000A30F5009F
:10341E007508F0007708F60004300310F60CFF3E36
:10342E00031D142A76080A168A15E521740708006A
:10343E00F000701C242A0816252A0812F01C292ACE
:10344E0088162A2A8812701D2E2A08172F2A08136A
:10345E00F01D332A881708008813080000300A165A
:10346E008A159F220A168A1501300A168A159F227E
:10347E000A168A158230F500DD30F400F40B452A69
:10348E00F50B452A4A2A08000A168A1593210A16B0
:10349E008A150A168A158F210A168A150830F00029
:1034AE00F00B572A0A168A159D210A168A1508301E
:1034BE00F000F00B602A0A168A15972108000A16EA
:1034CE008A159D210A168A150830F000F00B6D2A18
:1034DE000A168A158F210A168A150830F000F00B8D
:1034EE00762A0A168A1593210A168A150830F000D4
:1034FE00F00B7F2A0800F0007008023E8400831350
:10350E008001700A840080017008840080017008B8
:10351E00063E840080017008053E8400800170081C
:10352E00043E840080017008033E84008001080080
:10353E00F30083120313081173080A168A151F224B
:10354E000A168A1588151A30F200F830F100F10BC0
:10355E00AE2AF20BAE2A00008312031388111A3022
:10356E00F200F830F100F10BBA2AF20BBA2A000081
:10357E000800F401F501701CCA2A7208F40703183A
:10358E00F50A7308F50701300310F20DF30DFF3E37
:10359E00031DCB2A01300310F10CF00CFF3E031D6E
:1035AE00D22A70087104031DC22A7508F10074082E
:1035BE00F0000800F200F40170080319002BF3016B
:1035CE00F30AF01BF12A0310F00D0130F10071081F
:1035DE00F307E82A0310F40D70087202031CFB2A8D
:1035EE007008F20274140310F00C0130F302031D84
:1035FE00F12A74080800F8000A30F7007708F00086
:10360E0078080A168A15E1220A168A150F39303EF5
:10361E000A168A15A7240A168A150A30F7007708A3
:10362E00F00078080A168A1568230A168A15303EA5
:10363E000A168A15A7240800F800F601F701760885
:10364E00780784000A128A150A200A168A15003A8B
:10365E00031908007608780784000A128A150A20D2
:10366E000A168A150A168A15A7240A168A15013013
:10367E00F6070318F70A0030F707262BF800F401B7
:10368E00F5017008F200F3017208F6007308F700F6
:10369E00781C572B7608F4070318F50A7708F507F8
:1036AE0001300310F60DF70DFF3E031D582B0310CE
:1036BE00F80C7808031D4F2B7508F1007408F00004
:1036CE000800F4000830F1007108F500F6017408E6
:1036DE00F10007300310F10CFF3E031D712B76082D
:1036EE00F20072077104F3007308F6000310F40D74
:1036FE0070087602031C852B7008F6020130F50265
:10370E00031D6E2B76080800003083120313051973
:10371E000130F2007208031DA82B83166D03031DE2
:10372E00A82BC330F100CD30F000F00B9C2BF10B29
:10373E009C2B831203130519A82B8316ED01013060
:10374E0008007203031DAE2B8316ED01ED0A003047
:10375E000800F7007703031DB72B74087F3EB92BC3
:10376E007408BF3EF5007508FA007A08F5000430BB
:10377E000310F50CFF3E031DBF2B7508F6007608EF
:10378E00F8007A080F39F5007508F90078080A165E
:10379E008A159F220A168A1579080A168A159F22FB
:1037AE000800F400F601F501F41FE12B8312031358
:1037BE008614E42B8312031386100310F40D861562
:1037CE00E82BE92B000083120313060CF000700C9B
:1037DE000139F1007608F20072077104F3007308E4
:1037EE00F6008611FA2BFB2B00000130F00070085A
:1037FE00F50708307502031CDB2B760808007808E5
:10380E0079040319332CFD01FD0AF91B1A2C013022
:10381E000310F80DF90DFF3E031D0F2C0130FC00B7
:10382E007C08FD070C2C79087B02031D202C7808E0
:10383E007A02031C282C7808FA027908031CFB0371
:10384E00FB0201300310F90CF80CFF3E031D292C6E
:10385E000130FD02031D1A2C7B08F9007A08F800CE
:10386E0008006F08AC0001300310AC0DFF3E031DC5
:10387E003B2C03102C0DAD3E8400280883178000CE
:10388E00840A29088000840A2A088000840A2B08EA
:10389E0080000630A4000030A5006F08013EA6008F
:1038AE00003003180130A7000A168A1573250A1670
:1038BE008A152408AC002C08EF006F08031D0800C1
:1038CE008316E701E70A0800F501F6017008710496
:1038DE000319A22CF701F70AF11B812C01300310FA
:1038EE00F00DF10DFF3E031D762C0130F40074082F
:1038FE00F707732C01300310F50DF60DFF3E031D77
:10390E00822C71087302031D8E2C70087202031C28
:10391E00972C7008F2027108031CF303F30275145E
:10392E0001300310F10CF00CFF3E031D982C0130FA
:10393E00F702031D812C7608F1007508F0000800CF
:10394E00F50075080F39F1007108F3007508F039AC
:10395E00F1007108F4008312031308157408F100C6
:10396E0004300310F10CFF3E031DB82C71080A162B
:10397E008A151F220A168A1588154230F100F10B9E
:10398E00C62C000083120313881173080A168A15B9
:10399E001F220A168A1588154230F100F10BD52C1C
:1039AE0000008312031388110D30F200FB30F1007A
:1039BE00F10BDF2CF20BDF2CE42C0800F100F301ED
:1039CE00F11FEF2C0A168A1593210A168A15F42C6C
:1039DE000A168A159D210A168A150A168A158F212E
:1039EE000A168A150830F000F00BFB2C0A168A1501
:1039FE0097210A168A150310F10D0130F000700898
:103A0E00F30708307302031CE72C0A168A1593215C
:103A1E000A168A150A168A158F210A168A15083073
:103A2E00F000F00B182D031083120313071E03145E
:103A3E00003003180130F2000A168A159721720819
:103A4E00080083120313B601342D323036020318E8
:103A5E00432D0130B4003408B60736087C078400C5
:103A6E007D0803187D0AFF000A128A1500200A1627
:103A7E008A15003A031D2C2D83166B088312A7009E
:103A8E0083166A088312A600831669088312A5009E
:103A9E00831668088312A4000030A800A9007C08D1
:103AAE00AA007D08AB003608B4003408AC000A1634
:103ABE008A11BA23013083160313E8070030031866
:103ACE000130E907003003180130EA07003003180F
:103ADE000130EB0701300800FD01A71F7D2DA6095F
:103AEE00A709A60A0319A70AFD01FD0AA51F842D21
:103AFE00A409A509A40A0319A50A24082504031973
:103B0E00B12DFC01FC0AA51B982D01300310A40D4C
:103B1E00A50DFF3E031D8D2D0130FB007B08FC071C
:103B2E008A2D25082702031D9E2D24082602031C1C
:103B3E00A62D2408A6022508031CA703A702013000
:103B4E000310A50CA40CFF3E031DA72D0130FC0293
:103B5E00031D982D7D080319B92DA609A709A60ADC
:103B6E000319A70A2708A5002608A4000800831237
:103B7E000313A300FF30FB007B08A0002308031DE6
:103B8E00CC2D9530FB007B08A00008302306031DCA
:103B9E00D42D8730FB007B08A000FF300A168A1553
:103BAE00D8230A168A1583120313230840380A16DF
:103BBE008A15D8230A168A157A080A168A15D82362
:103BCE000A168A1579080A168A15D8230A168A152E
:103BDE0078080A168A15D8230A168A1577080A163F
:103BEE008A15D8230A168A158312031320080A167B
:103BFE008A15D8230A168A1583120313A201FF30E1
:103C0E000A168A15D8230A168A15FB007B0883121A
:103C1E000313A100A11B152E210808000130FB0083
:103C2E007B08A2070A302202031C062EFF30080072
:103C3E00F401F40A01300A168A15B0230A168A1501
:103C4E0091300A168A1523230A168A150D30903ED6
:103C5E0084008317000883160313A500840A000846
:103C6E00A600840A0008A700840A0008A8000A1605
:103C7E008A11A3240A168A1578300A168A15232368
:103C8E000A168A151530903E840083170008831695
:103C9E000313A500840A0008A600840A0008A700E2
:103CAE00840A0008A8000A168A11A3240A168A1587
:103CBE00F401F40A02300A168A15B0230A168A1580
:103CCE0095300A168A1523230A168A151130903E4E
:103CDE0084008317000883160313A500840A0008C6
:103CEE00A600840A0008A700840A0008A8000A1685
:103CFE008A11A3240A168A1565300A168A152323FB
:103D0E000800F401F40A01300A168A15B0230A16C7
:103D1E008A1587300A168A1523230A168A15093042
:103D2E00903E84008317000883160313A500840AAF
:103D3E000008A600840A0008A700840A0008A8004C
:103D4E000A168A11A3240A168A156D300A168A15C8
:103D5E0023230A168A151930903E84008317000813
:103D6E0083160313A500840A0008A600840A00081F
:103D7E00A700840A0008A8000A168A11A3240A16AE
:103D8E008A15F401F40A02300A168A15B0230A16AF
:103D9E008A1582300A168A1523230A168A150130CF
:103DAE00903E84008317000883160313A500840A2F
:103DBE000008A600840A0008A700840A0008A800CC
:103DCE000A168A11A3240A168A158C300A168A1529
:103DDE0023230A168A15831603171008303E0A1677
:103DEE008A15A724080003106A0D6B0D8316A00018
:103DFE0020088312ED006D08031D0E2F0030EB001E
:103E0E000030EA000030E9000030E80008006808E1
:103E1E008316A000831269088316A10083126A0814
:103E2E008316A20083126B088316A3001F300310A3
:103E3E00A30CA20CA10CA00CFF3E031D1E2F2008EC
:103E4E00A40024088312EC00EA17FF30E805FF30C7
:103E5E00E905FF30EA050030EB059630ED02ED1F67
:103E6E004F2F6D08803A973E031C052F013003102B
:103E7E00EB0CEA0CE90CE80CFF3E031D3E2F013063
:103E8E008316A00020088312ED070319662F3D2F1D
:103E9E0020306D020318052F6D080319662F0130AF
:103EAE008316A00003108312E80DE90DEA0DEB0D49
:103EBE008316A00B592F01308312ED02532F6C087D
:103ECE0003190800E809E909EA09EB09E80A0319E8
:103EDE00E90A0319EA0A0319EB0A08000811881106
:103EEE0008128812081388138230F500DD30F400B2
:103EFE00F40B7F2FF50B7F2F842F03300A168A15B4
:103F0E009F220A168A152130F5007630F400F40B44
:103F1E008E2FF50B8E2F000003300A168A159F2266
:103F2E000A168A154830F5006C30F400F40B9D2FFC
:103F3E00F50B9D2F000003300A168A159F220A16D4
:103F4E008A152130F5007630F400F40BAC2FF50B0A
:103F5E00AC2F000002300A168A159F220A168A1507
:103F6E002130F5007630F400F40BBB2FF50BBB2F90
:103F7E00000002300A168A159F220A168A1508308A
:103F8E000A168A159F220A168A152130F5007630F8
:103F9E00F400F40BD02FF50BD02F000000300A16D2
:103FAE008A159F220A168A150C300A168A159F2228
:103FBE000A168A152130F5007630F400F40BE52F41
:103FCE00F50BE52F000000300A168A159F220A16FF
:103FDE008A1501300A168A159F220A168A15823012
:103FEE00F500DD30F400F40BFA2FF50BFA2FFF2F4E
:023FFE000800B9
:04400E00E220FF3F6E
:00000001FF
